{"contracts/AtomicSwap.sol":{"AtomicSwap":{"abi":[{"inputs":[{"internalType":"address","name":"_binanceProxyRouter","type":"address"},{"internalType":"address","name":"_pancakeSwapRouter","type":"address"}],"stateMutability":"nonpayable","type":"constructor"},{"anonymous":false,"inputs":[{"indexed":true,"internalType":"address","name":"token","type":"address"},{"indexed":false,"internalType":"uint256","name":"amount","type":"uint256"}],"name":"EmergencyWithdraw","type":"event"},{"anonymous":false,"inputs":[{"indexed":true,"internalType":"address","name":"previousOwner","type":"address"},{"indexed":true,"internalType":"address","name":"newOwner","type":"address"}],"name":"OwnershipTransferred","type":"event"},{"anonymous":false,"inputs":[{"indexed":true,"internalType":"address","name":"sourceToken","type":"address"},{"indexed":true,"internalType":"address","name":"targetToken","type":"address"},{"indexed":false,"internalType":"uint256","name":"sourceAmount","type":"uint256"},{"indexed":false,"internalType":"uint256","name":"targetAmount","type":"uint256"},{"indexed":false,"internalType":"uint256","name":"finalSourceAmount","type":"uint256"}],"name":"SwapExecuted","type":"event"},{"inputs":[],"name":"BINANCE_PROXY_ROUTER","outputs":[{"internalType":"address","name":"","type":"address"}],"stateMutability":"view","type":"function"},{"inputs":[],"name":"PANCAKESWAP_ROUTER","outputs":[{"internalType":"address","name":"","type":"address"}],"stateMutability":"view","type":"function"},{"inputs":[],"name":"WBNB","outputs":[{"internalType":"address","name":"","type":"address"}],"stateMutability":"view","type":"function"},{"inputs":[{"internalType":"address","name":"token","type":"address"},{"internalType":"uint256","name":"amount","type":"uint256"}],"name":"emergencyWithdraw","outputs":[],"stateMutability":"nonpayable","type":"function"},{"inputs":[{"internalType":"address","name":"sourceToken","type":"address"},{"internalType":"address","name":"targetToken","type":"address"},{"internalType":"uint256","name":"sourceAmount","type":"uint256"},{"internalType":"uint256","name":"targetMinAmount","type":"uint256"},{"internalType":"uint256","name":"finalSourceMinAmount","type":"uint256"}],"name":"executeAtomicSwapPair","outputs":[],"stateMutability":"payable","type":"function"},{"inputs":[],"name":"owner","outputs":[{"internalType":"address","name":"","type":"address"}],"stateMutability":"view","type":"function"},{"inputs":[],"name":"renounceOwnership","outputs":[],"stateMutability":"nonpayable","type":"function"},{"inputs":[{"internalType":"address","name":"newOwner","type":"address"}],"name":"transferOwnership","outputs":[],"stateMutability":"nonpayable","type":"function"},{"stateMutability":"payable","type":"receive"}],"evm":{"bytecode":{"linkReferences":{},"object":"60e06040523480156200001157600080fd5b5060405162001a0b38038062001a0b8339810160408190526200003491620001f3565b6001600055620000443362000184565b6001600160a01b038216620000a05760405162461bcd60e51b815260206004820152601c60248201527f496e76616c69642070726f787920726f7574657220616464726573730000000060448201526064015b60405180910390fd5b6001600160a01b038116620000f85760405162461bcd60e51b815260206004820152601e60248201527f496e76616c69642070616e63616b6520726f7574657220616464726573730000604482015260640162000097565b6001600160a01b03808316608052811660a0819052604080516315ab88c960e31b8152905163ad5c4648916004808201926020929091908290030181865afa15801562000149573d6000803e3d6000fd5b505050506040513d601f19601f820116820180604052508101906200016f91906200022b565b6001600160a01b031660c05250620002509050565b600180546001600160a01b038381166001600160a01b0319831681179093556040519116919082907f8be0079c531659141344cd1fd0a4f28419497f9722a3daafe3b4186f6b6457e090600090a35050565b80516001600160a01b0381168114620001ee57600080fd5b919050565b600080604083850312156200020757600080fd5b6200021283620001d6565b91506200022260208401620001d6565b90509250929050565b6000602082840312156200023e57600080fd5b6200024982620001d6565b9392505050565b60805160a05160c051611723620002e86000396000818160fd015281816102dd0152818161036201528181610527015281816105750152818161067d01528181610a2b01528181610a7801528181610c970152610ce4015260008181610185015281816106bf01526108f4015260008181610151015281816105bb0152818161064e0152818161081f01526108c601526117236000f3fe60806040526004361061007f5760003560e01c806395ccea671161004e57806395ccea671461011f5780639c145c1c1461013f578063e1a504e514610173578063f2fde38b146101a757600080fd5b80635e54d5081461008b578063715018a6146100a05780638da5cb5b146100b55780638dd95002146100eb57600080fd5b3661008657005b600080fd5b61009e6100993660046114ad565b6101c7565b005b3480156100ac57600080fd5b5061009e610bea565b3480156100c157600080fd5b506001546001600160a01b03165b6040516001600160a01b03909116815260200160405180910390f35b3480156100f757600080fd5b506100cf7f000000000000000000000000000000000000000000000000000000000000000081565b34801561012b57600080fd5b5061009e61013a3660046114fa565b610bfe565b34801561014b57600080fd5b506100cf7f000000000000000000000000000000000000000000000000000000000000000081565b34801561017f57600080fd5b506100cf7f000000000000000000000000000000000000000000000000000000000000000081565b3480156101b357600080fd5b5061009e6101c2366004611524565b610e65565b6101cf610ede565b6001600160a01b038516158015906101ef57506001600160a01b03841615155b6102385760405162461bcd60e51b8152602060048201526015602482015274496e76616c696420746f6b656e206164647265737360581b60448201526064015b60405180910390fd5b6000831161027f5760405162461bcd60e51b8152602060048201526014602482015273125b9d985b1a59081a5b9c1d5d08185b5bdd5b9d60621b604482015260640161022f565b60008211801561028f5750600081115b6102db5760405162461bcd60e51b815260206004820152601960248201527f496e76616c6964206d696e206f757470757420616d6f756e7400000000000000604482015260640161022f565b7f00000000000000000000000000000000000000000000000000000000000000006001600160a01b0316856001600160a01b03161461031b57600061031d565b825b34146103605760405162461bcd60e51b8152602060048201526012602482015271125b9d985b1a590810939088185b5bdd5b9d60721b604482015260640161022f565b7f00000000000000000000000000000000000000000000000000000000000000006001600160a01b0316856001600160a01b031614610525576040516370a0823160e01b815233600482015283906001600160a01b038716906370a0823190602401602060405180830381865afa1580156103df573d6000803e3d6000fd5b505050506040513d601f19601f820116820180604052508101906104039190611546565b101561045b5760405162461bcd60e51b815260206004820152602160248201527f496e73756666696369656e7420736f7572636520746f6b656e2062616c616e636044820152606560f81b606482015260840161022f565b604051636eb1769f60e11b815233600482015230602482015283906001600160a01b0387169063dd62ed3e90604401602060405180830381865afa1580156104a7573d6000803e3d6000fd5b505050506040513d601f19601f820116820180604052508101906104cb9190611546565b10156105255760405162461bcd60e51b815260206004820152602360248201527f496e73756666696369656e7420736f7572636520746f6b656e20616c6c6f77616044820152626e636560e81b606482015260840161022f565b7f00000000000000000000000000000000000000000000000000000000000000006001600160a01b0316856001600160a01b031614610573576105736001600160a01b038616333086610f37565b7f00000000000000000000000000000000000000000000000000000000000000006001600160a01b0316856001600160a01b0316146105e0576105e06001600160a01b0386167f000000000000000000000000000000000000000000000000000000000000000085610fa8565b60006338ed173960e01b84846105f689896110c2565b306106036104b04261155f565b604051602401610617959493929190611580565b604051602081830303815290604052906001600160e01b0319166020820180516001600160e01b03838183161783525050505090507f00000000000000000000000000000000000000000000000000000000000000006001600160a01b031663e5e8894b7f00000000000000000000000000000000000000000000000000000000000000006001600160a01b0316886001600160a01b0316146106bb5760006106bd565b855b7f0000000000000000000000000000000000000000000000000000000000000000896001600160a01b0316888a6001600160a01b031689886040518863ffffffff1660e01b815260040161071696959493929190611641565b6000604051808303818588803b15801561072f57600080fd5b505af1158015610743573d6000803e3d6000fd5b50506040516370a0823160e01b8152306004820152600093506001600160a01b03891692506370a082319150602401602060405180830381865afa15801561078f573d6000803e3d6000fd5b505050506040513d601f19601f820116820180604052508101906107b39190611546565b9050838110156108105760405162461bcd60e51b815260206004820152602260248201527f496e73756666696369656e742074617267657420746f6b656e20726563656976604482015261195960f21b606482015260840161022f565b6108446001600160a01b0387167f000000000000000000000000000000000000000000000000000000000000000083610fa8565b60006338ed173960e01b828561085a8a8c6110c2565b306108676104b04261155f565b60405160240161087b959493929190611580565b60408051601f198184030181529181526020820180516001600160e01b03166001600160e01b031990941693909317909252905163e5e8894b60e01b81529091506001600160a01b037f000000000000000000000000000000000000000000000000000000000000000081169163e5e8894b91610929917f0000000000000000000000000000000000000000000000000000000000000000918c81169188918f16908b908990600401611641565b600060405180830381600087803b15801561094357600080fd5b505af1158015610957573d6000803e3d6000fd5b50506040516370a0823160e01b8152306004820152600092506001600160a01b038b1691506370a0823190602401602060405180830381865afa1580156109a2573d6000803e3d6000fd5b505050506040513d601f19601f820116820180604052508101906109c69190611546565b905084811015610a295760405162461bcd60e51b815260206004820152602860248201527f496e73756666696369656e742066696e616c20736f7572636520746f6b656e206044820152671c9958d95a5d995960c21b606482015260840161022f565b7f00000000000000000000000000000000000000000000000000000000000000006001600160a01b0316896001600160a01b031603610b7057604051632e1a7d4d60e01b8152600481018290527f00000000000000000000000000000000000000000000000000000000000000006001600160a01b031690632e1a7d4d90602401600060405180830381600087803b158015610ac457600080fd5b505af1158015610ad8573d6000803e3d6000fd5b50506040516000925033915083908381818185875af1925050503d8060008114610b1e576040519150601f19603f3d011682016040523d82523d6000602084013e610b23565b606091505b5050905080610b6a5760405162461bcd60e51b8152602060048201526013602482015272109390881d1c985b9cd9995c8819985a5b1959606a1b604482015260640161022f565b50610b84565b610b846001600160a01b038a163383611150565b60408051888152602081018590529081018290526001600160a01b03808a1691908b16907f28c738dbec11a1bed94ba127a3712d54bcd39cf4ae95b6ebd671aaf10fd0287b9060600160405180910390a350505050610be36001600055565b5050505050565b610bf2611180565b610bfc60006111da565b565b610c06611180565b6001600160a01b038216610c545760405162461bcd60e51b8152602060048201526015602482015274496e76616c696420746f6b656e206164647265737360581b604482015260640161022f565b60008111610c955760405162461bcd60e51b815260206004820152600e60248201526d125b9d985b1a5908185b5bdd5b9d60921b604482015260640161022f565b7f00000000000000000000000000000000000000000000000000000000000000006001600160a01b0316826001600160a01b031603610df857604051632e1a7d4d60e01b8152600481018290527f00000000000000000000000000000000000000000000000000000000000000006001600160a01b031690632e1a7d4d90602401600060405180830381600087803b158015610d3057600080fd5b505af1158015610d44573d6000803e3d6000fd5b505050506000610d5c6001546001600160a01b031690565b6001600160a01b03168260405160006040518083038185875af1925050503d8060008114610da6576040519150601f19603f3d011682016040523d82523d6000602084013e610dab565b606091505b5050905080610df25760405162461bcd60e51b8152602060048201526013602482015272109390881d1c985b9cd9995c8819985a5b1959606a1b604482015260640161022f565b50610e1e565b610e1e610e0d6001546001600160a01b031690565b6001600160a01b0384169083611150565b816001600160a01b03167f5fafa99d0643513820be26656b45130b01e1c03062e1266bf36f88cbd3bd969582604051610e5991815260200190565b60405180910390a25050565b610e6d611180565b6001600160a01b038116610ed25760405162461bcd60e51b815260206004820152602660248201527f4f776e61626c653a206e6577206f776e657220697320746865207a65726f206160448201526564647265737360d01b606482015260840161022f565b610edb816111da565b50565b600260005403610f305760405162461bcd60e51b815260206004820152601f60248201527f5265656e7472616e637947756172643a207265656e7472616e742063616c6c00604482015260640161022f565b6002600055565b6040516001600160a01b0380851660248301528316604482015260648101829052610fa29085906323b872dd60e01b906084015b60408051601f198184030181529190526020810180516001600160e01b03166001600160e01b03199093169290921790915261122c565b50505050565b8015806110225750604051636eb1769f60e11b81523060048201526001600160a01b03838116602483015284169063dd62ed3e90604401602060405180830381865afa158015610ffc573d6000803e3d6000fd5b505050506040513d601f19601f820116820180604052508101906110209190611546565b155b61108d5760405162461bcd60e51b815260206004820152603660248201527f5361666545524332303a20617070726f76652066726f6d206e6f6e2d7a65726f60448201527520746f206e6f6e2d7a65726f20616c6c6f77616e636560501b606482015260840161022f565b6040516001600160a01b0383166024820152604481018290526110bd90849063095ea7b360e01b90606401610f6b565b505050565b6040805160028082526060808301845292600092919060208301908036833701905050905083816000815181106110fb576110fb611686565b60200260200101906001600160a01b031690816001600160a01b031681525050828160018151811061112f5761112f611686565b6001600160a01b039092166020928302919091019091015290505b92915050565b6040516001600160a01b0383166024820152604481018290526110bd90849063a9059cbb60e01b90606401610f6b565b6001546001600160a01b03163314610bfc5760405162461bcd60e51b815260206004820181905260248201527f4f776e61626c653a2063616c6c6572206973206e6f7420746865206f776e6572604482015260640161022f565b600180546001600160a01b038381166001600160a01b0319831681179093556040519116919082907f8be0079c531659141344cd1fd0a4f28419497f9722a3daafe3b4186f6b6457e090600090a35050565b6000611281826040518060400160405280602081526020017f5361666545524332303a206c6f772d6c6576656c2063616c6c206661696c6564815250856001600160a01b03166113019092919063ffffffff16565b90508051600014806112a25750808060200190518101906112a2919061169c565b6110bd5760405162461bcd60e51b815260206004820152602a60248201527f5361666545524332303a204552433230206f7065726174696f6e20646964206e6044820152691bdd081cdd58d8d9595960b21b606482015260840161022f565b60606113108484600085611318565b949350505050565b6060824710156113795760405162461bcd60e51b815260206004820152602660248201527f416464726573733a20696e73756666696369656e742062616c616e636520666f6044820152651c8818d85b1b60d21b606482015260840161022f565b600080866001600160a01b0316858760405161139591906116be565b60006040518083038185875af1925050503d80600081146113d2576040519150601f19603f3d011682016040523d82523d6000602084013e6113d7565b606091505b50915091506113e8878383876113f3565b979650505050505050565b6060831561146257825160000361145b576001600160a01b0385163b61145b5760405162461bcd60e51b815260206004820152601d60248201527f416464726573733a2063616c6c20746f206e6f6e2d636f6e7472616374000000604482015260640161022f565b5081611310565b61131083838151156114775781518083602001fd5b8060405162461bcd60e51b815260040161022f91906116da565b80356001600160a01b03811681146114a857600080fd5b919050565b600080600080600060a086880312156114c557600080fd5b6114ce86611491565b94506114dc60208701611491565b94979496505050506040830135926060810135926080909101359150565b6000806040838503121561150d57600080fd5b61151683611491565b946020939093013593505050565b60006020828403121561153657600080fd5b61153f82611491565b9392505050565b60006020828403121561155857600080fd5b5051919050565b8082018082111561114a57634e487b7160e01b600052601160045260246000fd5b600060a082018783526020878185015260a0604085015281875180845260c086019150828901935060005b818110156115d05784516001600160a01b0316835293830193918301916001016115ab565b50506001600160a01b03969096166060850152505050608001529392505050565b60005b8381101561160c5781810151838201526020016115f4565b50506000910152565b6000815180845261162d8160208601602086016115f1565b601f01601f19169290920160200192915050565b60018060a01b038716815285602082015284604082015283606082015282608082015260c060a0820152600061167a60c0830184611615565b98975050505050505050565b634e487b7160e01b600052603260045260246000fd5b6000602082840312156116ae57600080fd5b8151801515811461153f57600080fd5b600082516116d08184602087016115f1565b9190910192915050565b60208152600061153f602083018461161556fea26469706673582212205e2df43ec9360f0043186704ddc8249f83217c729621b1b2835f2be4c65f499964736f6c63430008140033","opcodes":"PUSH1 0xE0 PUSH1 0x40 MSTORE CALLVALUE DUP1 ISZERO PUSH3 0x11 JUMPI PUSH1 0x0 DUP1 REVERT JUMPDEST POP PUSH1 0x40 MLOAD PUSH3 0x1A0B CODESIZE SUB DUP1 PUSH3 0x1A0B DUP4 CODECOPY DUP2 ADD PUSH1 0x40 DUP2 SWAP1 MSTORE PUSH3 0x34 SWAP2 PUSH3 0x1F3 JUMP JUMPDEST PUSH1 0x1 PUSH1 0x0 SSTORE PUSH3 0x44 CALLER PUSH3 0x184 JUMP JUMPDEST PUSH1 0x1 PUSH1 0x1 PUSH1 0xA0 SHL SUB DUP3 AND PUSH3 0xA0 JUMPI PUSH1 0x40 MLOAD PUSH3 0x461BCD PUSH1 0xE5 SHL DUP2 MSTORE PUSH1 0x20 PUSH1 0x4 DUP3 ADD MSTORE PUSH1 0x1C PUSH1 0x24 DUP3 ADD MSTORE PUSH32 0x496E76616C69642070726F787920726F75746572206164647265737300000000 PUSH1 0x44 DUP3 ADD MSTORE PUSH1 0x64 ADD JUMPDEST PUSH1 0x40 MLOAD DUP1 SWAP2 SUB SWAP1 REVERT JUMPDEST PUSH1 0x1 PUSH1 0x1 PUSH1 0xA0 SHL SUB DUP2 AND PUSH3 0xF8 JUMPI PUSH1 0x40 MLOAD PUSH3 0x461BCD PUSH1 0xE5 SHL DUP2 MSTORE PUSH1 0x20 PUSH1 0x4 DUP3 ADD MSTORE PUSH1 0x1E PUSH1 0x24 DUP3 ADD MSTORE PUSH32 0x496E76616C69642070616E63616B6520726F7574657220616464726573730000 PUSH1 0x44 DUP3 ADD MSTORE PUSH1 0x64 ADD PUSH3 0x97 JUMP JUMPDEST PUSH1 0x1 PUSH1 0x1 PUSH1 0xA0 SHL SUB DUP1 DUP4 AND PUSH1 0x80 MSTORE DUP2 AND PUSH1 0xA0 DUP2 SWAP1 MSTORE PUSH1 0x40 DUP1 MLOAD PUSH4 0x15AB88C9 PUSH1 0xE3 SHL DUP2 MSTORE SWAP1 MLOAD PUSH4 0xAD5C4648 SWAP2 PUSH1 0x4 DUP1 DUP3 ADD SWAP3 PUSH1 0x20 SWAP3 SWAP1 SWAP2 SWAP1 DUP3 SWAP1 SUB ADD DUP2 DUP7 GAS STATICCALL ISZERO DUP1 ISZERO PUSH3 0x149 JUMPI RETURNDATASIZE PUSH1 0x0 DUP1 RETURNDATACOPY RETURNDATASIZE PUSH1 0x0 REVERT JUMPDEST POP POP POP POP PUSH1 0x40 MLOAD RETURNDATASIZE PUSH1 0x1F NOT PUSH1 0x1F DUP3 ADD AND DUP3 ADD DUP1 PUSH1 0x40 MSTORE POP DUP2 ADD SWAP1 PUSH3 0x16F SWAP2 SWAP1 PUSH3 0x22B JUMP JUMPDEST PUSH1 0x1 PUSH1 0x1 PUSH1 0xA0 SHL SUB AND PUSH1 0xC0 MSTORE POP PUSH3 0x250 SWAP1 POP JUMP JUMPDEST PUSH1 0x1 DUP1 SLOAD PUSH1 0x1 PUSH1 0x1 PUSH1 0xA0 SHL SUB DUP4 DUP2 AND PUSH1 0x1 PUSH1 0x1 PUSH1 0xA0 SHL SUB NOT DUP4 AND DUP2 OR SWAP1 SWAP4 SSTORE PUSH1 0x40 MLOAD SWAP2 AND SWAP2 SWAP1 DUP3 SWAP1 PUSH32 0x8BE0079C531659141344CD1FD0A4F28419497F9722A3DAAFE3B4186F6B6457E0 SWAP1 PUSH1 0x0 SWAP1 LOG3 POP POP JUMP JUMPDEST DUP1 MLOAD PUSH1 0x1 PUSH1 0x1 PUSH1 0xA0 SHL SUB DUP2 AND DUP2 EQ PUSH3 0x1EE JUMPI PUSH1 0x0 DUP1 REVERT JUMPDEST SWAP2 SWAP1 POP JUMP JUMPDEST PUSH1 0x0 DUP1 PUSH1 0x40 DUP4 DUP6 SUB SLT ISZERO PUSH3 0x207 JUMPI PUSH1 0x0 DUP1 REVERT JUMPDEST PUSH3 0x212 DUP4 PUSH3 0x1D6 JUMP JUMPDEST SWAP2 POP PUSH3 0x222 PUSH1 0x20 DUP5 ADD PUSH3 0x1D6 JUMP JUMPDEST SWAP1 POP SWAP3 POP SWAP3 SWAP1 POP JUMP JUMPDEST PUSH1 0x0 PUSH1 0x20 DUP3 DUP5 SUB SLT ISZERO PUSH3 0x23E JUMPI PUSH1 0x0 DUP1 REVERT JUMPDEST PUSH3 0x249 DUP3 PUSH3 0x1D6 JUMP JUMPDEST SWAP4 SWAP3 POP POP POP JUMP JUMPDEST PUSH1 0x80 MLOAD PUSH1 0xA0 MLOAD PUSH1 0xC0 MLOAD PUSH2 0x1723 PUSH3 0x2E8 PUSH1 0x0 CODECOPY PUSH1 0x0 DUP2 DUP2 PUSH1 0xFD ADD MSTORE DUP2 DUP2 PUSH2 0x2DD ADD MSTORE DUP2 DUP2 PUSH2 0x362 ADD MSTORE DUP2 DUP2 PUSH2 0x527 ADD MSTORE DUP2 DUP2 PUSH2 0x575 ADD MSTORE DUP2 DUP2 PUSH2 0x67D ADD MSTORE DUP2 DUP2 PUSH2 0xA2B ADD MSTORE DUP2 DUP2 PUSH2 0xA78 ADD MSTORE DUP2 DUP2 PUSH2 0xC97 ADD MSTORE PUSH2 0xCE4 ADD MSTORE PUSH1 0x0 DUP2 DUP2 PUSH2 0x185 ADD MSTORE DUP2 DUP2 PUSH2 0x6BF ADD MSTORE PUSH2 0x8F4 ADD MSTORE PUSH1 0x0 DUP2 DUP2 PUSH2 0x151 ADD MSTORE DUP2 DUP2 PUSH2 0x5BB ADD MSTORE DUP2 DUP2 PUSH2 0x64E ADD MSTORE DUP2 DUP2 PUSH2 0x81F ADD MSTORE PUSH2 0x8C6 ADD MSTORE PUSH2 0x1723 PUSH1 0x0 RETURN INVALID PUSH1 0x80 PUSH1 0x40 MSTORE PUSH1 0x4 CALLDATASIZE LT PUSH2 0x7F JUMPI PUSH1 0x0 CALLDATALOAD PUSH1 0xE0 SHR DUP1 PUSH4 0x95CCEA67 GT PUSH2 0x4E JUMPI DUP1 PUSH4 0x95CCEA67 EQ PUSH2 0x11F JUMPI DUP1 PUSH4 0x9C145C1C EQ PUSH2 0x13F JUMPI DUP1 PUSH4 0xE1A504E5 EQ PUSH2 0x173 JUMPI DUP1 PUSH4 0xF2FDE38B EQ PUSH2 0x1A7 JUMPI PUSH1 0x0 DUP1 REVERT JUMPDEST DUP1 PUSH4 0x5E54D508 EQ PUSH2 0x8B JUMPI DUP1 PUSH4 0x715018A6 EQ PUSH2 0xA0 JUMPI DUP1 PUSH4 0x8DA5CB5B EQ PUSH2 0xB5 JUMPI DUP1 PUSH4 0x8DD95002 EQ PUSH2 0xEB JUMPI PUSH1 0x0 DUP1 REVERT JUMPDEST CALLDATASIZE PUSH2 0x86 JUMPI STOP JUMPDEST PUSH1 0x0 DUP1 REVERT JUMPDEST PUSH2 0x9E PUSH2 0x99 CALLDATASIZE PUSH1 0x4 PUSH2 0x14AD JUMP JUMPDEST PUSH2 0x1C7 JUMP JUMPDEST STOP JUMPDEST CALLVALUE DUP1 ISZERO PUSH2 0xAC JUMPI PUSH1 0x0 DUP1 REVERT JUMPDEST POP PUSH2 0x9E PUSH2 0xBEA JUMP JUMPDEST CALLVALUE DUP1 ISZERO PUSH2 0xC1 JUMPI PUSH1 0x0 DUP1 REVERT JUMPDEST POP PUSH1 0x1 SLOAD PUSH1 0x1 PUSH1 0x1 PUSH1 0xA0 SHL SUB AND JUMPDEST PUSH1 0x40 MLOAD PUSH1 0x1 PUSH1 0x1 PUSH1 0xA0 SHL SUB SWAP1 SWAP2 AND DUP2 MSTORE PUSH1 0x20 ADD PUSH1 0x40 MLOAD DUP1 SWAP2 SUB SWAP1 RETURN JUMPDEST CALLVALUE DUP1 ISZERO PUSH2 0xF7 JUMPI PUSH1 0x0 DUP1 REVERT JUMPDEST POP PUSH2 0xCF PUSH32 0x0 DUP2 JUMP JUMPDEST CALLVALUE DUP1 ISZERO PUSH2 0x12B JUMPI PUSH1 0x0 DUP1 REVERT JUMPDEST POP PUSH2 0x9E PUSH2 0x13A CALLDATASIZE PUSH1 0x4 PUSH2 0x14FA JUMP JUMPDEST PUSH2 0xBFE JUMP JUMPDEST CALLVALUE DUP1 ISZERO PUSH2 0x14B JUMPI PUSH1 0x0 DUP1 REVERT JUMPDEST POP PUSH2 0xCF PUSH32 0x0 DUP2 JUMP JUMPDEST CALLVALUE DUP1 ISZERO PUSH2 0x17F JUMPI PUSH1 0x0 DUP1 REVERT JUMPDEST POP PUSH2 0xCF PUSH32 0x0 DUP2 JUMP JUMPDEST CALLVALUE DUP1 ISZERO PUSH2 0x1B3 JUMPI PUSH1 0x0 DUP1 REVERT JUMPDEST POP PUSH2 0x9E PUSH2 0x1C2 CALLDATASIZE PUSH1 0x4 PUSH2 0x1524 JUMP JUMPDEST PUSH2 0xE65 JUMP JUMPDEST PUSH2 0x1CF PUSH2 0xEDE JUMP JUMPDEST PUSH1 0x1 PUSH1 0x1 PUSH1 0xA0 SHL SUB DUP6 AND ISZERO DUP1 ISZERO SWAP1 PUSH2 0x1EF JUMPI POP PUSH1 0x1 PUSH1 0x1 PUSH1 0xA0 SHL SUB DUP5 AND ISZERO ISZERO JUMPDEST PUSH2 0x238 JUMPI PUSH1 0x40 MLOAD PUSH3 0x461BCD PUSH1 0xE5 SHL DUP2 MSTORE PUSH1 0x20 PUSH1 0x4 DUP3 ADD MSTORE PUSH1 0x15 PUSH1 0x24 DUP3 ADD MSTORE PUSH21 0x496E76616C696420746F6B656E2061646472657373 PUSH1 0x58 SHL PUSH1 0x44 DUP3 ADD MSTORE PUSH1 0x64 ADD JUMPDEST PUSH1 0x40 MLOAD DUP1 SWAP2 SUB SWAP1 REVERT JUMPDEST PUSH1 0x0 DUP4 GT PUSH2 0x27F JUMPI PUSH1 0x40 MLOAD PUSH3 0x461BCD PUSH1 0xE5 SHL DUP2 MSTORE PUSH1 0x20 PUSH1 0x4 DUP3 ADD MSTORE PUSH1 0x14 PUSH1 0x24 DUP3 ADD MSTORE PUSH20 0x125B9D985B1A59081A5B9C1D5D08185B5BDD5B9D PUSH1 0x62 SHL PUSH1 0x44 DUP3 ADD MSTORE PUSH1 0x64 ADD PUSH2 0x22F JUMP JUMPDEST PUSH1 0x0 DUP3 GT DUP1 ISZERO PUSH2 0x28F JUMPI POP PUSH1 0x0 DUP2 GT JUMPDEST PUSH2 0x2DB JUMPI PUSH1 0x40 MLOAD PUSH3 0x461BCD PUSH1 0xE5 SHL DUP2 MSTORE PUSH1 0x20 PUSH1 0x4 DUP3 ADD MSTORE PUSH1 0x19 PUSH1 0x24 DUP3 ADD MSTORE PUSH32 0x496E76616C6964206D696E206F757470757420616D6F756E7400000000000000 PUSH1 0x44 DUP3 ADD MSTORE PUSH1 0x64 ADD PUSH2 0x22F JUMP JUMPDEST PUSH32 0x0 PUSH1 0x1 PUSH1 0x1 PUSH1 0xA0 SHL SUB AND DUP6 PUSH1 0x1 PUSH1 0x1 PUSH1 0xA0 SHL SUB AND EQ PUSH2 0x31B JUMPI PUSH1 0x0 PUSH2 0x31D JUMP JUMPDEST DUP3 JUMPDEST CALLVALUE EQ PUSH2 0x360 JUMPI PUSH1 0x40 MLOAD PUSH3 0x461BCD PUSH1 0xE5 SHL DUP2 MSTORE PUSH1 0x20 PUSH1 0x4 DUP3 ADD MSTORE PUSH1 0x12 PUSH1 0x24 DUP3 ADD MSTORE PUSH18 0x125B9D985B1A590810939088185B5BDD5B9D PUSH1 0x72 SHL PUSH1 0x44 DUP3 ADD MSTORE PUSH1 0x64 ADD PUSH2 0x22F JUMP JUMPDEST PUSH32 0x0 PUSH1 0x1 PUSH1 0x1 PUSH1 0xA0 SHL SUB AND DUP6 PUSH1 0x1 PUSH1 0x1 PUSH1 0xA0 SHL SUB AND EQ PUSH2 0x525 JUMPI PUSH1 0x40 MLOAD PUSH4 0x70A08231 PUSH1 0xE0 SHL DUP2 MSTORE CALLER PUSH1 0x4 DUP3 ADD MSTORE DUP4 SWAP1 PUSH1 0x1 PUSH1 0x1 PUSH1 0xA0 SHL SUB DUP8 AND SWAP1 PUSH4 0x70A08231 SWAP1 PUSH1 0x24 ADD PUSH1 0x20 PUSH1 0x40 MLOAD DUP1 DUP4 SUB DUP2 DUP7 GAS STATICCALL ISZERO DUP1 ISZERO PUSH2 0x3DF JUMPI RETURNDATASIZE PUSH1 0x0 DUP1 RETURNDATACOPY RETURNDATASIZE PUSH1 0x0 REVERT JUMPDEST POP POP POP POP PUSH1 0x40 MLOAD RETURNDATASIZE PUSH1 0x1F NOT PUSH1 0x1F DUP3 ADD AND DUP3 ADD DUP1 PUSH1 0x40 MSTORE POP DUP2 ADD SWAP1 PUSH2 0x403 SWAP2 SWAP1 PUSH2 0x1546 JUMP JUMPDEST LT ISZERO PUSH2 0x45B JUMPI PUSH1 0x40 MLOAD PUSH3 0x461BCD PUSH1 0xE5 SHL DUP2 MSTORE PUSH1 0x20 PUSH1 0x4 DUP3 ADD MSTORE PUSH1 0x21 PUSH1 0x24 DUP3 ADD MSTORE PUSH32 0x496E73756666696369656E7420736F7572636520746F6B656E2062616C616E63 PUSH1 0x44 DUP3 ADD MSTORE PUSH1 0x65 PUSH1 0xF8 SHL PUSH1 0x64 DUP3 ADD MSTORE PUSH1 0x84 ADD PUSH2 0x22F JUMP JUMPDEST PUSH1 0x40 MLOAD PUSH4 0x6EB1769F PUSH1 0xE1 SHL DUP2 MSTORE CALLER PUSH1 0x4 DUP3 ADD MSTORE ADDRESS PUSH1 0x24 DUP3 ADD MSTORE DUP4 SWAP1 PUSH1 0x1 PUSH1 0x1 PUSH1 0xA0 SHL SUB DUP8 AND SWAP1 PUSH4 0xDD62ED3E SWAP1 PUSH1 0x44 ADD PUSH1 0x20 PUSH1 0x40 MLOAD DUP1 DUP4 SUB DUP2 DUP7 GAS STATICCALL ISZERO DUP1 ISZERO PUSH2 0x4A7 JUMPI RETURNDATASIZE PUSH1 0x0 DUP1 RETURNDATACOPY RETURNDATASIZE PUSH1 0x0 REVERT JUMPDEST POP POP POP POP PUSH1 0x40 MLOAD RETURNDATASIZE PUSH1 0x1F NOT PUSH1 0x1F DUP3 ADD AND DUP3 ADD DUP1 PUSH1 0x40 MSTORE POP DUP2 ADD SWAP1 PUSH2 0x4CB SWAP2 SWAP1 PUSH2 0x1546 JUMP JUMPDEST LT ISZERO PUSH2 0x525 JUMPI PUSH1 0x40 MLOAD PUSH3 0x461BCD PUSH1 0xE5 SHL DUP2 MSTORE PUSH1 0x20 PUSH1 0x4 DUP3 ADD MSTORE PUSH1 0x23 PUSH1 0x24 DUP3 ADD MSTORE PUSH32 0x496E73756666696369656E7420736F7572636520746F6B656E20616C6C6F7761 PUSH1 0x44 DUP3 ADD MSTORE PUSH3 0x6E6365 PUSH1 0xE8 SHL PUSH1 0x64 DUP3 ADD MSTORE PUSH1 0x84 ADD PUSH2 0x22F JUMP JUMPDEST PUSH32 0x0 PUSH1 0x1 PUSH1 0x1 PUSH1 0xA0 SHL SUB AND DUP6 PUSH1 0x1 PUSH1 0x1 PUSH1 0xA0 SHL SUB AND EQ PUSH2 0x573 JUMPI PUSH2 0x573 PUSH1 0x1 PUSH1 0x1 PUSH1 0xA0 SHL SUB DUP7 AND CALLER ADDRESS DUP7 PUSH2 0xF37 JUMP JUMPDEST PUSH32 0x0 PUSH1 0x1 PUSH1 0x1 PUSH1 0xA0 SHL SUB AND DUP6 PUSH1 0x1 PUSH1 0x1 PUSH1 0xA0 SHL SUB AND EQ PUSH2 0x5E0 JUMPI PUSH2 0x5E0 PUSH1 0x1 PUSH1 0x1 PUSH1 0xA0 SHL SUB DUP7 AND PUSH32 0x0 DUP6 PUSH2 0xFA8 JUMP JUMPDEST PUSH1 0x0 PUSH4 0x38ED1739 PUSH1 0xE0 SHL DUP5 DUP5 PUSH2 0x5F6 DUP10 DUP10 PUSH2 0x10C2 JUMP JUMPDEST ADDRESS PUSH2 0x603 PUSH2 0x4B0 TIMESTAMP PUSH2 0x155F JUMP JUMPDEST PUSH1 0x40 MLOAD PUSH1 0x24 ADD PUSH2 0x617 SWAP6 SWAP5 SWAP4 SWAP3 SWAP2 SWAP1 PUSH2 0x1580 JUMP JUMPDEST PUSH1 0x40 MLOAD PUSH1 0x20 DUP2 DUP4 SUB SUB DUP2 MSTORE SWAP1 PUSH1 0x40 MSTORE SWAP1 PUSH1 0x1 PUSH1 0x1 PUSH1 0xE0 SHL SUB NOT AND PUSH1 0x20 DUP3 ADD DUP1 MLOAD PUSH1 0x1 PUSH1 0x1 PUSH1 0xE0 SHL SUB DUP4 DUP2 DUP4 AND OR DUP4 MSTORE POP POP POP POP SWAP1 POP PUSH32 0x0 PUSH1 0x1 PUSH1 0x1 PUSH1 0xA0 SHL SUB AND PUSH4 0xE5E8894B PUSH32 0x0 PUSH1 0x1 PUSH1 0x1 PUSH1 0xA0 SHL SUB AND DUP9 PUSH1 0x1 PUSH1 0x1 PUSH1 0xA0 SHL SUB AND EQ PUSH2 0x6BB JUMPI PUSH1 0x0 PUSH2 0x6BD JUMP JUMPDEST DUP6 JUMPDEST PUSH32 0x0 DUP10 PUSH1 0x1 PUSH1 0x1 PUSH1 0xA0 SHL SUB AND DUP9 DUP11 PUSH1 0x1 PUSH1 0x1 PUSH1 0xA0 SHL SUB AND DUP10 DUP9 PUSH1 0x40 MLOAD DUP9 PUSH4 0xFFFFFFFF AND PUSH1 0xE0 SHL DUP2 MSTORE PUSH1 0x4 ADD PUSH2 0x716 SWAP7 SWAP6 SWAP5 SWAP4 SWAP3 SWAP2 SWAP1 PUSH2 0x1641 JUMP JUMPDEST PUSH1 0x0 PUSH1 0x40 MLOAD DUP1 DUP4 SUB DUP2 DUP6 DUP9 DUP1 EXTCODESIZE ISZERO DUP1 ISZERO PUSH2 0x72F JUMPI PUSH1 0x0 DUP1 REVERT JUMPDEST POP GAS CALL ISZERO DUP1 ISZERO PUSH2 0x743 JUMPI RETURNDATASIZE PUSH1 0x0 DUP1 RETURNDATACOPY RETURNDATASIZE PUSH1 0x0 REVERT JUMPDEST POP POP PUSH1 0x40 MLOAD PUSH4 0x70A08231 PUSH1 0xE0 SHL DUP2 MSTORE ADDRESS PUSH1 0x4 DUP3 ADD MSTORE PUSH1 0x0 SWAP4 POP PUSH1 0x1 PUSH1 0x1 PUSH1 0xA0 SHL SUB DUP10 AND SWAP3 POP PUSH4 0x70A08231 SWAP2 POP PUSH1 0x24 ADD PUSH1 0x20 PUSH1 0x40 MLOAD DUP1 DUP4 SUB DUP2 DUP7 GAS STATICCALL ISZERO DUP1 ISZERO PUSH2 0x78F JUMPI RETURNDATASIZE PUSH1 0x0 DUP1 RETURNDATACOPY RETURNDATASIZE PUSH1 0x0 REVERT JUMPDEST POP POP POP POP PUSH1 0x40 MLOAD RETURNDATASIZE PUSH1 0x1F NOT PUSH1 0x1F DUP3 ADD AND DUP3 ADD DUP1 PUSH1 0x40 MSTORE POP DUP2 ADD SWAP1 PUSH2 0x7B3 SWAP2 SWAP1 PUSH2 0x1546 JUMP JUMPDEST SWAP1 POP DUP4 DUP2 LT ISZERO PUSH2 0x810 JUMPI PUSH1 0x40 MLOAD PUSH3 0x461BCD PUSH1 0xE5 SHL DUP2 MSTORE PUSH1 0x20 PUSH1 0x4 DUP3 ADD MSTORE PUSH1 0x22 PUSH1 0x24 DUP3 ADD MSTORE PUSH32 0x496E73756666696369656E742074617267657420746F6B656E20726563656976 PUSH1 0x44 DUP3 ADD MSTORE PUSH2 0x1959 PUSH1 0xF2 SHL PUSH1 0x64 DUP3 ADD MSTORE PUSH1 0x84 ADD PUSH2 0x22F JUMP JUMPDEST PUSH2 0x844 PUSH1 0x1 PUSH1 0x1 PUSH1 0xA0 SHL SUB DUP8 AND PUSH32 0x0 DUP4 PUSH2 0xFA8 JUMP JUMPDEST PUSH1 0x0 PUSH4 0x38ED1739 PUSH1 0xE0 SHL DUP3 DUP6 PUSH2 0x85A DUP11 DUP13 PUSH2 0x10C2 JUMP JUMPDEST ADDRESS PUSH2 0x867 PUSH2 0x4B0 TIMESTAMP PUSH2 0x155F JUMP JUMPDEST PUSH1 0x40 MLOAD PUSH1 0x24 ADD PUSH2 0x87B SWAP6 SWAP5 SWAP4 SWAP3 SWAP2 SWAP1 PUSH2 0x1580 JUMP JUMPDEST PUSH1 0x40 DUP1 MLOAD PUSH1 0x1F NOT DUP2 DUP5 SUB ADD DUP2 MSTORE SWAP2 DUP2 MSTORE PUSH1 0x20 DUP3 ADD DUP1 MLOAD PUSH1 0x1 PUSH1 0x1 PUSH1 0xE0 SHL SUB AND PUSH1 0x1 PUSH1 0x1 PUSH1 0xE0 SHL SUB NOT SWAP1 SWAP5 AND SWAP4 SWAP1 SWAP4 OR SWAP1 SWAP3 MSTORE SWAP1 MLOAD PUSH4 0xE5E8894B PUSH1 0xE0 SHL DUP2 MSTORE SWAP1 SWAP2 POP PUSH1 0x1 PUSH1 0x1 PUSH1 0xA0 SHL SUB PUSH32 0x0 DUP2 AND SWAP2 PUSH4 0xE5E8894B SWAP2 PUSH2 0x929 SWAP2 PUSH32 0x0 SWAP2 DUP13 DUP2 AND SWAP2 DUP9 SWAP2 DUP16 AND SWAP1 DUP12 SWAP1 DUP10 SWAP1 PUSH1 0x4 ADD PUSH2 0x1641 JUMP JUMPDEST PUSH1 0x0 PUSH1 0x40 MLOAD DUP1 DUP4 SUB DUP2 PUSH1 0x0 DUP8 DUP1 EXTCODESIZE ISZERO DUP1 ISZERO PUSH2 0x943 JUMPI PUSH1 0x0 DUP1 REVERT JUMPDEST POP GAS CALL ISZERO DUP1 ISZERO PUSH2 0x957 JUMPI RETURNDATASIZE PUSH1 0x0 DUP1 RETURNDATACOPY RETURNDATASIZE PUSH1 0x0 REVERT JUMPDEST POP POP PUSH1 0x40 MLOAD PUSH4 0x70A08231 PUSH1 0xE0 SHL DUP2 MSTORE ADDRESS PUSH1 0x4 DUP3 ADD MSTORE PUSH1 0x0 SWAP3 POP PUSH1 0x1 PUSH1 0x1 PUSH1 0xA0 SHL SUB DUP12 AND SWAP2 POP PUSH4 0x70A08231 SWAP1 PUSH1 0x24 ADD PUSH1 0x20 PUSH1 0x40 MLOAD DUP1 DUP4 SUB DUP2 DUP7 GAS STATICCALL ISZERO DUP1 ISZERO PUSH2 0x9A2 JUMPI RETURNDATASIZE PUSH1 0x0 DUP1 RETURNDATACOPY RETURNDATASIZE PUSH1 0x0 REVERT JUMPDEST POP POP POP POP PUSH1 0x40 MLOAD RETURNDATASIZE PUSH1 0x1F NOT PUSH1 0x1F DUP3 ADD AND DUP3 ADD DUP1 PUSH1 0x40 MSTORE POP DUP2 ADD SWAP1 PUSH2 0x9C6 SWAP2 SWAP1 PUSH2 0x1546 JUMP JUMPDEST SWAP1 POP DUP5 DUP2 LT ISZERO PUSH2 0xA29 JUMPI PUSH1 0x40 MLOAD PUSH3 0x461BCD PUSH1 0xE5 SHL DUP2 MSTORE PUSH1 0x20 PUSH1 0x4 DUP3 ADD MSTORE PUSH1 0x28 PUSH1 0x24 DUP3 ADD MSTORE PUSH32 0x496E73756666696369656E742066696E616C20736F7572636520746F6B656E20 PUSH1 0x44 DUP3 ADD MSTORE PUSH8 0x1C9958D95A5D9959 PUSH1 0xC2 SHL PUSH1 0x64 DUP3 ADD MSTORE PUSH1 0x84 ADD PUSH2 0x22F JUMP JUMPDEST PUSH32 0x0 PUSH1 0x1 PUSH1 0x1 PUSH1 0xA0 SHL SUB AND DUP10 PUSH1 0x1 PUSH1 0x1 PUSH1 0xA0 SHL SUB AND SUB PUSH2 0xB70 JUMPI PUSH1 0x40 MLOAD PUSH4 0x2E1A7D4D PUSH1 0xE0 SHL DUP2 MSTORE PUSH1 0x4 DUP2 ADD DUP3 SWAP1 MSTORE PUSH32 0x0 PUSH1 0x1 PUSH1 0x1 PUSH1 0xA0 SHL SUB AND SWAP1 PUSH4 0x2E1A7D4D SWAP1 PUSH1 0x24 ADD PUSH1 0x0 PUSH1 0x40 MLOAD DUP1 DUP4 SUB DUP2 PUSH1 0x0 DUP8 DUP1 EXTCODESIZE ISZERO DUP1 ISZERO PUSH2 0xAC4 JUMPI PUSH1 0x0 DUP1 REVERT JUMPDEST POP GAS CALL ISZERO DUP1 ISZERO PUSH2 0xAD8 JUMPI RETURNDATASIZE PUSH1 0x0 DUP1 RETURNDATACOPY RETURNDATASIZE PUSH1 0x0 REVERT JUMPDEST POP POP PUSH1 0x40 MLOAD PUSH1 0x0 SWAP3 POP CALLER SWAP2 POP DUP4 SWAP1 DUP4 DUP2 DUP2 DUP2 DUP6 DUP8 GAS CALL SWAP3 POP POP POP RETURNDATASIZE DUP1 PUSH1 0x0 DUP2 EQ PUSH2 0xB1E JUMPI PUSH1 0x40 MLOAD SWAP2 POP PUSH1 0x1F NOT PUSH1 0x3F RETURNDATASIZE ADD AND DUP3 ADD PUSH1 0x40 MSTORE RETURNDATASIZE DUP3 MSTORE RETURNDATASIZE PUSH1 0x0 PUSH1 0x20 DUP5 ADD RETURNDATACOPY PUSH2 0xB23 JUMP JUMPDEST PUSH1 0x60 SWAP2 POP JUMPDEST POP POP SWAP1 POP DUP1 PUSH2 0xB6A JUMPI PUSH1 0x40 MLOAD PUSH3 0x461BCD PUSH1 0xE5 SHL DUP2 MSTORE PUSH1 0x20 PUSH1 0x4 DUP3 ADD MSTORE PUSH1 0x13 PUSH1 0x24 DUP3 ADD MSTORE PUSH19 0x109390881D1C985B9CD9995C8819985A5B1959 PUSH1 0x6A SHL PUSH1 0x44 DUP3 ADD MSTORE PUSH1 0x64 ADD PUSH2 0x22F JUMP JUMPDEST POP PUSH2 0xB84 JUMP JUMPDEST PUSH2 0xB84 PUSH1 0x1 PUSH1 0x1 PUSH1 0xA0 SHL SUB DUP11 AND CALLER DUP4 PUSH2 0x1150 JUMP JUMPDEST PUSH1 0x40 DUP1 MLOAD DUP9 DUP2 MSTORE PUSH1 0x20 DUP2 ADD DUP6 SWAP1 MSTORE SWAP1 DUP2 ADD DUP3 SWAP1 MSTORE PUSH1 0x1 PUSH1 0x1 PUSH1 0xA0 SHL SUB DUP1 DUP11 AND SWAP2 SWAP1 DUP12 AND SWAP1 PUSH32 0x28C738DBEC11A1BED94BA127A3712D54BCD39CF4AE95B6EBD671AAF10FD0287B SWAP1 PUSH1 0x60 ADD PUSH1 0x40 MLOAD DUP1 SWAP2 SUB SWAP1 LOG3 POP POP POP POP PUSH2 0xBE3 PUSH1 0x1 PUSH1 0x0 SSTORE JUMP JUMPDEST POP POP POP POP POP JUMP JUMPDEST PUSH2 0xBF2 PUSH2 0x1180 JUMP JUMPDEST PUSH2 0xBFC PUSH1 0x0 PUSH2 0x11DA JUMP JUMPDEST JUMP JUMPDEST PUSH2 0xC06 PUSH2 0x1180 JUMP JUMPDEST PUSH1 0x1 PUSH1 0x1 PUSH1 0xA0 SHL SUB DUP3 AND PUSH2 0xC54 JUMPI PUSH1 0x40 MLOAD PUSH3 0x461BCD PUSH1 0xE5 SHL DUP2 MSTORE PUSH1 0x20 PUSH1 0x4 DUP3 ADD MSTORE PUSH1 0x15 PUSH1 0x24 DUP3 ADD MSTORE PUSH21 0x496E76616C696420746F6B656E2061646472657373 PUSH1 0x58 SHL PUSH1 0x44 DUP3 ADD MSTORE PUSH1 0x64 ADD PUSH2 0x22F JUMP JUMPDEST PUSH1 0x0 DUP2 GT PUSH2 0xC95 JUMPI PUSH1 0x40 MLOAD PUSH3 0x461BCD PUSH1 0xE5 SHL DUP2 MSTORE PUSH1 0x20 PUSH1 0x4 DUP3 ADD MSTORE PUSH1 0xE PUSH1 0x24 DUP3 ADD MSTORE PUSH14 0x125B9D985B1A5908185B5BDD5B9D PUSH1 0x92 SHL PUSH1 0x44 DUP3 ADD MSTORE PUSH1 0x64 ADD PUSH2 0x22F JUMP JUMPDEST PUSH32 0x0 PUSH1 0x1 PUSH1 0x1 PUSH1 0xA0 SHL SUB AND DUP3 PUSH1 0x1 PUSH1 0x1 PUSH1 0xA0 SHL SUB AND SUB PUSH2 0xDF8 JUMPI PUSH1 0x40 MLOAD PUSH4 0x2E1A7D4D PUSH1 0xE0 SHL DUP2 MSTORE PUSH1 0x4 DUP2 ADD DUP3 SWAP1 MSTORE PUSH32 0x0 PUSH1 0x1 PUSH1 0x1 PUSH1 0xA0 SHL SUB AND SWAP1 PUSH4 0x2E1A7D4D SWAP1 PUSH1 0x24 ADD PUSH1 0x0 PUSH1 0x40 MLOAD DUP1 DUP4 SUB DUP2 PUSH1 0x0 DUP8 DUP1 EXTCODESIZE ISZERO DUP1 ISZERO PUSH2 0xD30 JUMPI PUSH1 0x0 DUP1 REVERT JUMPDEST POP GAS CALL ISZERO DUP1 ISZERO PUSH2 0xD44 JUMPI RETURNDATASIZE PUSH1 0x0 DUP1 RETURNDATACOPY RETURNDATASIZE PUSH1 0x0 REVERT JUMPDEST POP POP POP POP PUSH1 0x0 PUSH2 0xD5C PUSH1 0x1 SLOAD PUSH1 0x1 PUSH1 0x1 PUSH1 0xA0 SHL SUB AND SWAP1 JUMP JUMPDEST PUSH1 0x1 PUSH1 0x1 PUSH1 0xA0 SHL SUB AND DUP3 PUSH1 0x40 MLOAD PUSH1 0x0 PUSH1 0x40 MLOAD DUP1 DUP4 SUB DUP2 DUP6 DUP8 GAS CALL SWAP3 POP POP POP RETURNDATASIZE DUP1 PUSH1 0x0 DUP2 EQ PUSH2 0xDA6 JUMPI PUSH1 0x40 MLOAD SWAP2 POP PUSH1 0x1F NOT PUSH1 0x3F RETURNDATASIZE ADD AND DUP3 ADD PUSH1 0x40 MSTORE RETURNDATASIZE DUP3 MSTORE RETURNDATASIZE PUSH1 0x0 PUSH1 0x20 DUP5 ADD RETURNDATACOPY PUSH2 0xDAB JUMP JUMPDEST PUSH1 0x60 SWAP2 POP JUMPDEST POP POP SWAP1 POP DUP1 PUSH2 0xDF2 JUMPI PUSH1 0x40 MLOAD PUSH3 0x461BCD PUSH1 0xE5 SHL DUP2 MSTORE PUSH1 0x20 PUSH1 0x4 DUP3 ADD MSTORE PUSH1 0x13 PUSH1 0x24 DUP3 ADD MSTORE PUSH19 0x109390881D1C985B9CD9995C8819985A5B1959 PUSH1 0x6A SHL PUSH1 0x44 DUP3 ADD MSTORE PUSH1 0x64 ADD PUSH2 0x22F JUMP JUMPDEST POP PUSH2 0xE1E JUMP JUMPDEST PUSH2 0xE1E PUSH2 0xE0D PUSH1 0x1 SLOAD PUSH1 0x1 PUSH1 0x1 PUSH1 0xA0 SHL SUB AND SWAP1 JUMP JUMPDEST PUSH1 0x1 PUSH1 0x1 PUSH1 0xA0 SHL SUB DUP5 AND SWAP1 DUP4 PUSH2 0x1150 JUMP JUMPDEST DUP2 PUSH1 0x1 PUSH1 0x1 PUSH1 0xA0 SHL SUB AND PUSH32 0x5FAFA99D0643513820BE26656B45130B01E1C03062E1266BF36F88CBD3BD9695 DUP3 PUSH1 0x40 MLOAD PUSH2 0xE59 SWAP2 DUP2 MSTORE PUSH1 0x20 ADD SWAP1 JUMP JUMPDEST PUSH1 0x40 MLOAD DUP1 SWAP2 SUB SWAP1 LOG2 POP POP JUMP JUMPDEST PUSH2 0xE6D PUSH2 0x1180 JUMP JUMPDEST PUSH1 0x1 PUSH1 0x1 PUSH1 0xA0 SHL SUB DUP2 AND PUSH2 0xED2 JUMPI PUSH1 0x40 MLOAD PUSH3 0x461BCD PUSH1 0xE5 SHL DUP2 MSTORE PUSH1 0x20 PUSH1 0x4 DUP3 ADD MSTORE PUSH1 0x26 PUSH1 0x24 DUP3 ADD MSTORE PUSH32 0x4F776E61626C653A206E6577206F776E657220697320746865207A65726F2061 PUSH1 0x44 DUP3 ADD MSTORE PUSH6 0x646472657373 PUSH1 0xD0 SHL PUSH1 0x64 DUP3 ADD MSTORE PUSH1 0x84 ADD PUSH2 0x22F JUMP JUMPDEST PUSH2 0xEDB DUP2 PUSH2 0x11DA JUMP JUMPDEST POP JUMP JUMPDEST PUSH1 0x2 PUSH1 0x0 SLOAD SUB PUSH2 0xF30 JUMPI PUSH1 0x40 MLOAD PUSH3 0x461BCD PUSH1 0xE5 SHL DUP2 MSTORE PUSH1 0x20 PUSH1 0x4 DUP3 ADD MSTORE PUSH1 0x1F PUSH1 0x24 DUP3 ADD MSTORE PUSH32 0x5265656E7472616E637947756172643A207265656E7472616E742063616C6C00 PUSH1 0x44 DUP3 ADD MSTORE PUSH1 0x64 ADD PUSH2 0x22F JUMP JUMPDEST PUSH1 0x2 PUSH1 0x0 SSTORE JUMP JUMPDEST PUSH1 0x40 MLOAD PUSH1 0x1 PUSH1 0x1 PUSH1 0xA0 SHL SUB DUP1 DUP6 AND PUSH1 0x24 DUP4 ADD MSTORE DUP4 AND PUSH1 0x44 DUP3 ADD MSTORE PUSH1 0x64 DUP2 ADD DUP3 SWAP1 MSTORE PUSH2 0xFA2 SWAP1 DUP6 SWAP1 PUSH4 0x23B872DD PUSH1 0xE0 SHL SWAP1 PUSH1 0x84 ADD JUMPDEST PUSH1 0x40 DUP1 MLOAD PUSH1 0x1F NOT DUP2 DUP5 SUB ADD DUP2 MSTORE SWAP2 SWAP1 MSTORE PUSH1 0x20 DUP2 ADD DUP1 MLOAD PUSH1 0x1 PUSH1 0x1 PUSH1 0xE0 SHL SUB AND PUSH1 0x1 PUSH1 0x1 PUSH1 0xE0 SHL SUB NOT SWAP1 SWAP4 AND SWAP3 SWAP1 SWAP3 OR SWAP1 SWAP2 MSTORE PUSH2 0x122C JUMP JUMPDEST POP POP POP POP JUMP JUMPDEST DUP1 ISZERO DUP1 PUSH2 0x1022 JUMPI POP PUSH1 0x40 MLOAD PUSH4 0x6EB1769F PUSH1 0xE1 SHL DUP2 MSTORE ADDRESS PUSH1 0x4 DUP3 ADD MSTORE PUSH1 0x1 PUSH1 0x1 PUSH1 0xA0 SHL SUB DUP4 DUP2 AND PUSH1 0x24 DUP4 ADD MSTORE DUP5 AND SWAP1 PUSH4 0xDD62ED3E SWAP1 PUSH1 0x44 ADD PUSH1 0x20 PUSH1 0x40 MLOAD DUP1 DUP4 SUB DUP2 DUP7 GAS STATICCALL ISZERO DUP1 ISZERO PUSH2 0xFFC JUMPI RETURNDATASIZE PUSH1 0x0 DUP1 RETURNDATACOPY RETURNDATASIZE PUSH1 0x0 REVERT JUMPDEST POP POP POP POP PUSH1 0x40 MLOAD RETURNDATASIZE PUSH1 0x1F NOT PUSH1 0x1F DUP3 ADD AND DUP3 ADD DUP1 PUSH1 0x40 MSTORE POP DUP2 ADD SWAP1 PUSH2 0x1020 SWAP2 SWAP1 PUSH2 0x1546 JUMP JUMPDEST ISZERO JUMPDEST PUSH2 0x108D JUMPI PUSH1 0x40 MLOAD PUSH3 0x461BCD PUSH1 0xE5 SHL DUP2 MSTORE PUSH1 0x20 PUSH1 0x4 DUP3 ADD MSTORE PUSH1 0x36 PUSH1 0x24 DUP3 ADD MSTORE PUSH32 0x5361666545524332303A20617070726F76652066726F6D206E6F6E2D7A65726F PUSH1 0x44 DUP3 ADD MSTORE PUSH22 0x20746F206E6F6E2D7A65726F20616C6C6F77616E6365 PUSH1 0x50 SHL PUSH1 0x64 DUP3 ADD MSTORE PUSH1 0x84 ADD PUSH2 0x22F JUMP JUMPDEST PUSH1 0x40 MLOAD PUSH1 0x1 PUSH1 0x1 PUSH1 0xA0 SHL SUB DUP4 AND PUSH1 0x24 DUP3 ADD MSTORE PUSH1 0x44 DUP2 ADD DUP3 SWAP1 MSTORE PUSH2 0x10BD SWAP1 DUP5 SWAP1 PUSH4 0x95EA7B3 PUSH1 0xE0 SHL SWAP1 PUSH1 0x64 ADD PUSH2 0xF6B JUMP JUMPDEST POP POP POP JUMP JUMPDEST PUSH1 0x40 DUP1 MLOAD PUSH1 0x2 DUP1 DUP3 MSTORE PUSH1 0x60 DUP1 DUP4 ADD DUP5 MSTORE SWAP3 PUSH1 0x0 SWAP3 SWAP2 SWAP1 PUSH1 0x20 DUP4 ADD SWAP1 DUP1 CALLDATASIZE DUP4 CALLDATACOPY ADD SWAP1 POP POP SWAP1 POP DUP4 DUP2 PUSH1 0x0 DUP2 MLOAD DUP2 LT PUSH2 0x10FB JUMPI PUSH2 0x10FB PUSH2 0x1686 JUMP JUMPDEST PUSH1 0x20 MUL PUSH1 0x20 ADD ADD SWAP1 PUSH1 0x1 PUSH1 0x1 PUSH1 0xA0 SHL SUB AND SWAP1 DUP2 PUSH1 0x1 PUSH1 0x1 PUSH1 0xA0 SHL SUB AND DUP2 MSTORE POP POP DUP3 DUP2 PUSH1 0x1 DUP2 MLOAD DUP2 LT PUSH2 0x112F JUMPI PUSH2 0x112F PUSH2 0x1686 JUMP JUMPDEST PUSH1 0x1 PUSH1 0x1 PUSH1 0xA0 SHL SUB SWAP1 SWAP3 AND PUSH1 0x20 SWAP3 DUP4 MUL SWAP2 SWAP1 SWAP2 ADD SWAP1 SWAP2 ADD MSTORE SWAP1 POP JUMPDEST SWAP3 SWAP2 POP POP JUMP JUMPDEST PUSH1 0x40 MLOAD PUSH1 0x1 PUSH1 0x1 PUSH1 0xA0 SHL SUB DUP4 AND PUSH1 0x24 DUP3 ADD MSTORE PUSH1 0x44 DUP2 ADD DUP3 SWAP1 MSTORE PUSH2 0x10BD SWAP1 DUP5 SWAP1 PUSH4 0xA9059CBB PUSH1 0xE0 SHL SWAP1 PUSH1 0x64 ADD PUSH2 0xF6B JUMP JUMPDEST PUSH1 0x1 SLOAD PUSH1 0x1 PUSH1 0x1 PUSH1 0xA0 SHL SUB AND CALLER EQ PUSH2 0xBFC JUMPI PUSH1 0x40 MLOAD PUSH3 0x461BCD PUSH1 0xE5 SHL DUP2 MSTORE PUSH1 0x20 PUSH1 0x4 DUP3 ADD DUP2 SWAP1 MSTORE PUSH1 0x24 DUP3 ADD MSTORE PUSH32 0x4F776E61626C653A2063616C6C6572206973206E6F7420746865206F776E6572 PUSH1 0x44 DUP3 ADD MSTORE PUSH1 0x64 ADD PUSH2 0x22F JUMP JUMPDEST PUSH1 0x1 DUP1 SLOAD PUSH1 0x1 PUSH1 0x1 PUSH1 0xA0 SHL SUB DUP4 DUP2 AND PUSH1 0x1 PUSH1 0x1 PUSH1 0xA0 SHL SUB NOT DUP4 AND DUP2 OR SWAP1 SWAP4 SSTORE PUSH1 0x40 MLOAD SWAP2 AND SWAP2 SWAP1 DUP3 SWAP1 PUSH32 0x8BE0079C531659141344CD1FD0A4F28419497F9722A3DAAFE3B4186F6B6457E0 SWAP1 PUSH1 0x0 SWAP1 LOG3 POP POP JUMP JUMPDEST PUSH1 0x0 PUSH2 0x1281 DUP3 PUSH1 0x40 MLOAD DUP1 PUSH1 0x40 ADD PUSH1 0x40 MSTORE DUP1 PUSH1 0x20 DUP2 MSTORE PUSH1 0x20 ADD PUSH32 0x5361666545524332303A206C6F772D6C6576656C2063616C6C206661696C6564 DUP2 MSTORE POP DUP6 PUSH1 0x1 PUSH1 0x1 PUSH1 0xA0 SHL SUB AND PUSH2 0x1301 SWAP1 SWAP3 SWAP2 SWAP1 PUSH4 0xFFFFFFFF AND JUMP JUMPDEST SWAP1 POP DUP1 MLOAD PUSH1 0x0 EQ DUP1 PUSH2 0x12A2 JUMPI POP DUP1 DUP1 PUSH1 0x20 ADD SWAP1 MLOAD DUP2 ADD SWAP1 PUSH2 0x12A2 SWAP2 SWAP1 PUSH2 0x169C JUMP JUMPDEST PUSH2 0x10BD JUMPI PUSH1 0x40 MLOAD PUSH3 0x461BCD PUSH1 0xE5 SHL DUP2 MSTORE PUSH1 0x20 PUSH1 0x4 DUP3 ADD MSTORE PUSH1 0x2A PUSH1 0x24 DUP3 ADD MSTORE PUSH32 0x5361666545524332303A204552433230206F7065726174696F6E20646964206E PUSH1 0x44 DUP3 ADD MSTORE PUSH10 0x1BDD081CDD58D8D95959 PUSH1 0xB2 SHL PUSH1 0x64 DUP3 ADD MSTORE PUSH1 0x84 ADD PUSH2 0x22F JUMP JUMPDEST PUSH1 0x60 PUSH2 0x1310 DUP5 DUP5 PUSH1 0x0 DUP6 PUSH2 0x1318 JUMP JUMPDEST SWAP5 SWAP4 POP POP POP POP JUMP JUMPDEST PUSH1 0x60 DUP3 SELFBALANCE LT ISZERO PUSH2 0x1379 JUMPI PUSH1 0x40 MLOAD PUSH3 0x461BCD PUSH1 0xE5 SHL DUP2 MSTORE PUSH1 0x20 PUSH1 0x4 DUP3 ADD MSTORE PUSH1 0x26 PUSH1 0x24 DUP3 ADD MSTORE PUSH32 0x416464726573733A20696E73756666696369656E742062616C616E636520666F PUSH1 0x44 DUP3 ADD MSTORE PUSH6 0x1C8818D85B1B PUSH1 0xD2 SHL PUSH1 0x64 DUP3 ADD MSTORE PUSH1 0x84 ADD PUSH2 0x22F JUMP JUMPDEST PUSH1 0x0 DUP1 DUP7 PUSH1 0x1 PUSH1 0x1 PUSH1 0xA0 SHL SUB AND DUP6 DUP8 PUSH1 0x40 MLOAD PUSH2 0x1395 SWAP2 SWAP1 PUSH2 0x16BE JUMP JUMPDEST PUSH1 0x0 PUSH1 0x40 MLOAD DUP1 DUP4 SUB DUP2 DUP6 DUP8 GAS CALL SWAP3 POP POP POP RETURNDATASIZE DUP1 PUSH1 0x0 DUP2 EQ PUSH2 0x13D2 JUMPI PUSH1 0x40 MLOAD SWAP2 POP PUSH1 0x1F NOT PUSH1 0x3F RETURNDATASIZE ADD AND DUP3 ADD PUSH1 0x40 MSTORE RETURNDATASIZE DUP3 MSTORE RETURNDATASIZE PUSH1 0x0 PUSH1 0x20 DUP5 ADD RETURNDATACOPY PUSH2 0x13D7 JUMP JUMPDEST PUSH1 0x60 SWAP2 POP JUMPDEST POP SWAP2 POP SWAP2 POP PUSH2 0x13E8 DUP8 DUP4 DUP4 DUP8 PUSH2 0x13F3 JUMP JUMPDEST SWAP8 SWAP7 POP POP POP POP POP POP POP JUMP JUMPDEST PUSH1 0x60 DUP4 ISZERO PUSH2 0x1462 JUMPI DUP3 MLOAD PUSH1 0x0 SUB PUSH2 0x145B JUMPI PUSH1 0x1 PUSH1 0x1 PUSH1 0xA0 SHL SUB DUP6 AND EXTCODESIZE PUSH2 0x145B JUMPI PUSH1 0x40 MLOAD PUSH3 0x461BCD PUSH1 0xE5 SHL DUP2 MSTORE PUSH1 0x20 PUSH1 0x4 DUP3 ADD MSTORE PUSH1 0x1D PUSH1 0x24 DUP3 ADD MSTORE PUSH32 0x416464726573733A2063616C6C20746F206E6F6E2D636F6E7472616374000000 PUSH1 0x44 DUP3 ADD MSTORE PUSH1 0x64 ADD PUSH2 0x22F JUMP JUMPDEST POP DUP2 PUSH2 0x1310 JUMP JUMPDEST PUSH2 0x1310 DUP4 DUP4 DUP2 MLOAD ISZERO PUSH2 0x1477 JUMPI DUP2 MLOAD DUP1 DUP4 PUSH1 0x20 ADD REVERT JUMPDEST DUP1 PUSH1 0x40 MLOAD PUSH3 0x461BCD PUSH1 0xE5 SHL DUP2 MSTORE PUSH1 0x4 ADD PUSH2 0x22F SWAP2 SWAP1 PUSH2 0x16DA JUMP JUMPDEST DUP1 CALLDATALOAD PUSH1 0x1 PUSH1 0x1 PUSH1 0xA0 SHL SUB DUP2 AND DUP2 EQ PUSH2 0x14A8 JUMPI PUSH1 0x0 DUP1 REVERT JUMPDEST SWAP2 SWAP1 POP JUMP JUMPDEST PUSH1 0x0 DUP1 PUSH1 0x0 DUP1 PUSH1 0x0 PUSH1 0xA0 DUP7 DUP9 SUB SLT ISZERO PUSH2 0x14C5 JUMPI PUSH1 0x0 DUP1 REVERT JUMPDEST PUSH2 0x14CE DUP7 PUSH2 0x1491 JUMP JUMPDEST SWAP5 POP PUSH2 0x14DC PUSH1 0x20 DUP8 ADD PUSH2 0x1491 JUMP JUMPDEST SWAP5 SWAP8 SWAP5 SWAP7 POP POP POP POP PUSH1 0x40 DUP4 ADD CALLDATALOAD SWAP3 PUSH1 0x60 DUP2 ADD CALLDATALOAD SWAP3 PUSH1 0x80 SWAP1 SWAP2 ADD CALLDATALOAD SWAP2 POP JUMP JUMPDEST PUSH1 0x0 DUP1 PUSH1 0x40 DUP4 DUP6 SUB SLT ISZERO PUSH2 0x150D JUMPI PUSH1 0x0 DUP1 REVERT JUMPDEST PUSH2 0x1516 DUP4 PUSH2 0x1491 JUMP JUMPDEST SWAP5 PUSH1 0x20 SWAP4 SWAP1 SWAP4 ADD CALLDATALOAD SWAP4 POP POP POP JUMP JUMPDEST PUSH1 0x0 PUSH1 0x20 DUP3 DUP5 SUB SLT ISZERO PUSH2 0x1536 JUMPI PUSH1 0x0 DUP1 REVERT JUMPDEST PUSH2 0x153F DUP3 PUSH2 0x1491 JUMP JUMPDEST SWAP4 SWAP3 POP POP POP JUMP JUMPDEST PUSH1 0x0 PUSH1 0x20 DUP3 DUP5 SUB SLT ISZERO PUSH2 0x1558 JUMPI PUSH1 0x0 DUP1 REVERT JUMPDEST POP MLOAD SWAP2 SWAP1 POP JUMP JUMPDEST DUP1 DUP3 ADD DUP1 DUP3 GT ISZERO PUSH2 0x114A JUMPI PUSH4 0x4E487B71 PUSH1 0xE0 SHL PUSH1 0x0 MSTORE PUSH1 0x11 PUSH1 0x4 MSTORE PUSH1 0x24 PUSH1 0x0 REVERT JUMPDEST PUSH1 0x0 PUSH1 0xA0 DUP3 ADD DUP8 DUP4 MSTORE PUSH1 0x20 DUP8 DUP2 DUP6 ADD MSTORE PUSH1 0xA0 PUSH1 0x40 DUP6 ADD MSTORE DUP2 DUP8 MLOAD DUP1 DUP5 MSTORE PUSH1 0xC0 DUP7 ADD SWAP2 POP DUP3 DUP10 ADD SWAP4 POP PUSH1 0x0 JUMPDEST DUP2 DUP2 LT ISZERO PUSH2 0x15D0 JUMPI DUP5 MLOAD PUSH1 0x1 PUSH1 0x1 PUSH1 0xA0 SHL SUB AND DUP4 MSTORE SWAP4 DUP4 ADD SWAP4 SWAP2 DUP4 ADD SWAP2 PUSH1 0x1 ADD PUSH2 0x15AB JUMP JUMPDEST POP POP PUSH1 0x1 PUSH1 0x1 PUSH1 0xA0 SHL SUB SWAP7 SWAP1 SWAP7 AND PUSH1 0x60 DUP6 ADD MSTORE POP POP POP PUSH1 0x80 ADD MSTORE SWAP4 SWAP3 POP POP POP JUMP JUMPDEST PUSH1 0x0 JUMPDEST DUP4 DUP2 LT ISZERO PUSH2 0x160C JUMPI DUP2 DUP2 ADD MLOAD DUP4 DUP3 ADD MSTORE PUSH1 0x20 ADD PUSH2 0x15F4 JUMP JUMPDEST POP POP PUSH1 0x0 SWAP2 ADD MSTORE JUMP JUMPDEST PUSH1 0x0 DUP2 MLOAD DUP1 DUP5 MSTORE PUSH2 0x162D DUP2 PUSH1 0x20 DUP7 ADD PUSH1 0x20 DUP7 ADD PUSH2 0x15F1 JUMP JUMPDEST PUSH1 0x1F ADD PUSH1 0x1F NOT AND SWAP3 SWAP1 SWAP3 ADD PUSH1 0x20 ADD SWAP3 SWAP2 POP POP JUMP JUMPDEST PUSH1 0x1 DUP1 PUSH1 0xA0 SHL SUB DUP8 AND DUP2 MSTORE DUP6 PUSH1 0x20 DUP3 ADD MSTORE DUP5 PUSH1 0x40 DUP3 ADD MSTORE DUP4 PUSH1 0x60 DUP3 ADD MSTORE DUP3 PUSH1 0x80 DUP3 ADD MSTORE PUSH1 0xC0 PUSH1 0xA0 DUP3 ADD MSTORE PUSH1 0x0 PUSH2 0x167A PUSH1 0xC0 DUP4 ADD DUP5 PUSH2 0x1615 JUMP JUMPDEST SWAP9 SWAP8 POP POP POP POP POP POP POP POP JUMP JUMPDEST PUSH4 0x4E487B71 PUSH1 0xE0 SHL PUSH1 0x0 MSTORE PUSH1 0x32 PUSH1 0x4 MSTORE PUSH1 0x24 PUSH1 0x0 REVERT JUMPDEST PUSH1 0x0 PUSH1 0x20 DUP3 DUP5 SUB SLT ISZERO PUSH2 0x16AE JUMPI PUSH1 0x0 DUP1 REVERT JUMPDEST DUP2 MLOAD DUP1 ISZERO ISZERO DUP2 EQ PUSH2 0x153F JUMPI PUSH1 0x0 DUP1 REVERT JUMPDEST PUSH1 0x0 DUP3 MLOAD PUSH2 0x16D0 DUP2 DUP5 PUSH1 0x20 DUP8 ADD PUSH2 0x15F1 JUMP JUMPDEST SWAP2 SWAP1 SWAP2 ADD SWAP3 SWAP2 POP POP JUMP JUMPDEST PUSH1 0x20 DUP2 MSTORE PUSH1 0x0 PUSH2 0x153F PUSH1 0x20 DUP4 ADD DUP5 PUSH2 0x1615 JUMP INVALID LOG2 PUSH5 0x6970667358 0x22 SLT KECCAK256 0x5E 0x2D DELEGATECALL RETURNDATACOPY 0xC9 CALLDATASIZE 0xF STOP NUMBER XOR PUSH8 0x4DDC8249F83217C PUSH19 0x9621B1B2835F2BE4C65F499964736F6C634300 ADDMOD EQ STOP CALLER "},"methodIdentifiers":{"BINANCE_PROXY_ROUTER()":"9c145c1c","PANCAKESWAP_ROUTER()":"e1a504e5","WBNB()":"8dd95002","emergencyWithdraw(address,uint256)":"95ccea67","executeAtomicSwapPair(address,address,uint256,uint256,uint256)":"5e54d508","owner()":"8da5cb5b","renounceOwnership()":"715018a6","transferOwnership(address)":"f2fde38b"}}}}}