{"contracts/test/MockBinanceProxyRouter.sol":{"MockBinanceProxyRouter":{"abi":[{"inputs":[{"internalType":"address","name":"target","type":"address"}],"name":"AddressEmptyCode","type":"error"},{"inputs":[{"internalType":"address","name":"account","type":"address"}],"name":"AddressInsufficientBalance","type":"error"},{"inputs":[],"name":"ApproveFailed","type":"error"},{"inputs":[],"name":"FailedInnerCall","type":"error"},{"inputs":[{"internalType":"uint256","name":"fee","type":"uint256"}],"name":"InvalidFeeValue","type":"error"},{"inputs":[{"internalType":"address","name":"router","type":"address"}],"name":"InvalidRouter","type":"error"},{"inputs":[{"internalType":"uint256","name":"minReturnAmt","type":"uint256"},{"internalType":"uint256","name":"result","type":"uint256"}],"name":"MinReturnNotReached","type":"error"},{"inputs":[],"name":"OnlyContractOwner","type":"error"},{"inputs":[{"internalType":"address","name":"token","type":"address"}],"name":"SafeERC20FailedOperation","type":"error"},{"anonymous":false,"inputs":[{"indexed":true,"internalType":"address","name":"token","type":"address"},{"indexed":false,"internalType":"address","name":"recipient","type":"address"},{"indexed":false,"internalType":"uint256","name":"amount","type":"uint256"}],"name":"FeeCollected","type":"event"},{"anonymous":false,"inputs":[{"indexed":true,"internalType":"address","name":"operator","type":"address"},{"indexed":false,"internalType":"address[]","name":"router","type":"address[]"}],"name":"RouterAllowed","type":"event"},{"anonymous":false,"inputs":[{"indexed":true,"internalType":"address","name":"operator","type":"address"},{"indexed":false,"internalType":"address[]","name":"router","type":"address[]"}],"name":"RouterDenied","type":"event"},{"inputs":[{"internalType":"address[]","name":"router","type":"address[]"}],"name":"addRouters","outputs":[],"stateMutability":"nonpayable","type":"function"},{"inputs":[],"name":"getRouterList","outputs":[{"internalType":"address[]","name":"","type":"address[]"}],"stateMutability":"pure","type":"function"},{"inputs":[{"internalType":"address","name":"router","type":"address"},{"internalType":"uint256","name":"fromTokenWithFee","type":"uint256"},{"internalType":"uint256","name":"fromAmt","type":"uint256"},{"internalType":"uint256","name":"toTokenWithFee","type":"uint256"},{"internalType":"uint256","name":"minReturnAmt","type":"uint256"},{"internalType":"bytes","name":"callData","type":"bytes"}],"name":"proxySwapV2","outputs":[],"stateMutability":"payable","type":"function"},{"inputs":[{"internalType":"address[]","name":"router","type":"address[]"}],"name":"removeRouters","outputs":[],"stateMutability":"nonpayable","type":"function"}],"evm":{"bytecode":{"linkReferences":{},"object":"608060405234801561001057600080fd5b506102c3806100206000396000f3fe60806040526004361061003f5760003560e01c80634b01f85e146100445780635580e90414610044578063e5e8894b14610065578063f6a2ddd814610078575b600080fd5b34801561005057600080fd5b5061006361005f366004610113565b5050565b005b610063610073366004610188565b6100a7565b34801561008457600080fd5b506040805160008152602081019182905261009e91610240565b60405180910390f35b6040516340c10f1960e01b81523360048201526024810184905284906001600160a01b038216906340c10f1990604401600060405180830381600087803b1580156100f157600080fd5b505af1158015610105573d6000803e3d6000fd5b505050505050505050505050565b6000806020838503121561012657600080fd5b823567ffffffffffffffff8082111561013e57600080fd5b818501915085601f83011261015257600080fd5b81358181111561016157600080fd5b8660208260051b850101111561017657600080fd5b60209290920196919550909350505050565b600080600080600080600060c0888a0312156101a357600080fd5b87356001600160a01b03811681146101ba57600080fd5b96506020880135955060408801359450606088013593506080880135925060a088013567ffffffffffffffff808211156101f357600080fd5b818a0191508a601f83011261020757600080fd5b81358181111561021657600080fd5b8b602082850101111561022857600080fd5b60208301945080935050505092959891949750929550565b6020808252825182820181905260009190848201906040850190845b818110156102815783516001600160a01b03168352928401929184019160010161025c565b5090969550505050505056fea2646970667358221220d4868fd3bc0e5c00084d356e8d08f6816dc74365942eb57f3d3f293a56110cab64736f6c63430008140033","opcodes":"PUSH1 0x80 PUSH1 0x40 MSTORE CALLVALUE DUP1 ISZERO PUSH2 0x10 JUMPI PUSH1 0x0 DUP1 REVERT JUMPDEST POP PUSH2 0x2C3 DUP1 PUSH2 0x20 PUSH1 0x0 CODECOPY PUSH1 0x0 RETURN INVALID PUSH1 0x80 PUSH1 0x40 MSTORE PUSH1 0x4 CALLDATASIZE LT PUSH2 0x3F JUMPI PUSH1 0x0 CALLDATALOAD PUSH1 0xE0 SHR DUP1 PUSH4 0x4B01F85E EQ PUSH2 0x44 JUMPI DUP1 PUSH4 0x5580E904 EQ PUSH2 0x44 JUMPI DUP1 PUSH4 0xE5E8894B EQ PUSH2 0x65 JUMPI DUP1 PUSH4 0xF6A2DDD8 EQ PUSH2 0x78 JUMPI JUMPDEST PUSH1 0x0 DUP1 REVERT JUMPDEST CALLVALUE DUP1 ISZERO PUSH2 0x50 JUMPI PUSH1 0x0 DUP1 REVERT JUMPDEST POP PUSH2 0x63 PUSH2 0x5F CALLDATASIZE PUSH1 0x4 PUSH2 0x113 JUMP JUMPDEST POP POP JUMP JUMPDEST STOP JUMPDEST PUSH2 0x63 PUSH2 0x73 CALLDATASIZE PUSH1 0x4 PUSH2 0x188 JUMP JUMPDEST PUSH2 0xA7 JUMP JUMPDEST CALLVALUE DUP1 ISZERO PUSH2 0x84 JUMPI PUSH1 0x0 DUP1 REVERT JUMPDEST POP PUSH1 0x40 DUP1 MLOAD PUSH1 0x0 DUP2 MSTORE PUSH1 0x20 DUP2 ADD SWAP2 DUP3 SWAP1 MSTORE PUSH2 0x9E SWAP2 PUSH2 0x240 JUMP JUMPDEST PUSH1 0x40 MLOAD DUP1 SWAP2 SUB SWAP1 RETURN JUMPDEST PUSH1 0x40 MLOAD PUSH4 0x40C10F19 PUSH1 0xE0 SHL DUP2 MSTORE CALLER PUSH1 0x4 DUP3 ADD MSTORE PUSH1 0x24 DUP2 ADD DUP5 SWAP1 MSTORE DUP5 SWAP1 PUSH1 0x1 PUSH1 0x1 PUSH1 0xA0 SHL SUB DUP3 AND SWAP1 PUSH4 0x40C10F19 SWAP1 PUSH1 0x44 ADD PUSH1 0x0 PUSH1 0x40 MLOAD DUP1 DUP4 SUB DUP2 PUSH1 0x0 DUP8 DUP1 EXTCODESIZE ISZERO DUP1 ISZERO PUSH2 0xF1 JUMPI PUSH1 0x0 DUP1 REVERT JUMPDEST POP GAS CALL ISZERO DUP1 ISZERO PUSH2 0x105 JUMPI RETURNDATASIZE PUSH1 0x0 DUP1 RETURNDATACOPY RETURNDATASIZE PUSH1 0x0 REVERT JUMPDEST POP POP POP POP POP POP POP POP POP POP POP POP JUMP JUMPDEST PUSH1 0x0 DUP1 PUSH1 0x20 DUP4 DUP6 SUB SLT ISZERO PUSH2 0x126 JUMPI PUSH1 0x0 DUP1 REVERT JUMPDEST DUP3 CALLDATALOAD PUSH8 0xFFFFFFFFFFFFFFFF DUP1 DUP3 GT ISZERO PUSH2 0x13E JUMPI PUSH1 0x0 DUP1 REVERT JUMPDEST DUP2 DUP6 ADD SWAP2 POP DUP6 PUSH1 0x1F DUP4 ADD SLT PUSH2 0x152 JUMPI PUSH1 0x0 DUP1 REVERT JUMPDEST DUP2 CALLDATALOAD DUP2 DUP2 GT ISZERO PUSH2 0x161 JUMPI PUSH1 0x0 DUP1 REVERT JUMPDEST DUP7 PUSH1 0x20 DUP3 PUSH1 0x5 SHL DUP6 ADD ADD GT ISZERO PUSH2 0x176 JUMPI PUSH1 0x0 DUP1 REVERT JUMPDEST PUSH1 0x20 SWAP3 SWAP1 SWAP3 ADD SWAP7 SWAP2 SWAP6 POP SWAP1 SWAP4 POP POP POP POP JUMP JUMPDEST PUSH1 0x0 DUP1 PUSH1 0x0 DUP1 PUSH1 0x0 DUP1 PUSH1 0x0 PUSH1 0xC0 DUP9 DUP11 SUB SLT ISZERO PUSH2 0x1A3 JUMPI PUSH1 0x0 DUP1 REVERT JUMPDEST DUP8 CALLDATALOAD PUSH1 0x1 PUSH1 0x1 PUSH1 0xA0 SHL SUB DUP2 AND DUP2 EQ PUSH2 0x1BA JUMPI PUSH1 0x0 DUP1 REVERT JUMPDEST SWAP7 POP PUSH1 0x20 DUP9 ADD CALLDATALOAD SWAP6 POP PUSH1 0x40 DUP9 ADD CALLDATALOAD SWAP5 POP PUSH1 0x60 DUP9 ADD CALLDATALOAD SWAP4 POP PUSH1 0x80 DUP9 ADD CALLDATALOAD SWAP3 POP PUSH1 0xA0 DUP9 ADD CALLDATALOAD PUSH8 0xFFFFFFFFFFFFFFFF DUP1 DUP3 GT ISZERO PUSH2 0x1F3 JUMPI PUSH1 0x0 DUP1 REVERT JUMPDEST DUP2 DUP11 ADD SWAP2 POP DUP11 PUSH1 0x1F DUP4 ADD SLT PUSH2 0x207 JUMPI PUSH1 0x0 DUP1 REVERT JUMPDEST DUP2 CALLDATALOAD DUP2 DUP2 GT ISZERO PUSH2 0x216 JUMPI PUSH1 0x0 DUP1 REVERT JUMPDEST DUP12 PUSH1 0x20 DUP3 DUP6 ADD ADD GT ISZERO PUSH2 0x228 JUMPI PUSH1 0x0 DUP1 REVERT JUMPDEST PUSH1 0x20 DUP4 ADD SWAP5 POP DUP1 SWAP4 POP POP POP POP SWAP3 SWAP6 SWAP9 SWAP2 SWAP5 SWAP8 POP SWAP3 SWAP6 POP JUMP JUMPDEST PUSH1 0x20 DUP1 DUP3 MSTORE DUP3 MLOAD DUP3 DUP3 ADD DUP2 SWAP1 MSTORE PUSH1 0x0 SWAP2 SWAP1 DUP5 DUP3 ADD SWAP1 PUSH1 0x40 DUP6 ADD SWAP1 DUP5 JUMPDEST DUP2 DUP2 LT ISZERO PUSH2 0x281 JUMPI DUP4 MLOAD PUSH1 0x1 PUSH1 0x1 PUSH1 0xA0 SHL SUB AND DUP4 MSTORE SWAP3 DUP5 ADD SWAP3 SWAP2 DUP5 ADD SWAP2 PUSH1 0x1 ADD PUSH2 0x25C JUMP JUMPDEST POP SWAP1 SWAP7 SWAP6 POP POP POP POP POP POP JUMP INVALID LOG2 PUSH5 0x6970667358 0x22 SLT KECCAK256 0xD4 DUP7 DUP16 0xD3 0xBC 0xE 0x5C STOP ADDMOD 0x4D CALLDATALOAD PUSH15 0x8D08F6816DC74365942EB57F3D3F29 GASPRICE JUMP GT 0xC 0xAB PUSH5 0x736F6C6343 STOP ADDMOD EQ STOP CALLER "},"methodIdentifiers":{"addRouters(address[])":"4b01f85e","getRouterList()":"f6a2ddd8","proxySwapV2(address,uint256,uint256,uint256,uint256,bytes)":"e5e8894b","removeRouters(address[])":"5580e904"}}}}}