{"contracts/test/MockBinanceProxyRouter.sol":{"MockBinanceProxyRouter":{"abi":[{"inputs":[{"internalType":"address","name":"target","type":"address"}],"name":"AddressEmptyCode","type":"error"},{"inputs":[{"internalType":"address","name":"account","type":"address"}],"name":"AddressInsufficientBalance","type":"error"},{"inputs":[],"name":"ApproveFailed","type":"error"},{"inputs":[],"name":"FailedInnerCall","type":"error"},{"inputs":[{"internalType":"uint256","name":"fee","type":"uint256"}],"name":"InvalidFeeValue","type":"error"},{"inputs":[{"internalType":"address","name":"router","type":"address"}],"name":"InvalidRouter","type":"error"},{"inputs":[{"internalType":"uint256","name":"minReturnAmt","type":"uint256"},{"internalType":"uint256","name":"result","type":"uint256"}],"name":"MinReturnNotReached","type":"error"},{"inputs":[],"name":"OnlyContractOwner","type":"error"},{"inputs":[{"internalType":"address","name":"token","type":"address"}],"name":"SafeERC20FailedOperation","type":"error"},{"anonymous":false,"inputs":[{"indexed":true,"internalType":"address","name":"token","type":"address"},{"indexed":false,"internalType":"address","name":"recipient","type":"address"},{"indexed":false,"internalType":"uint256","name":"amount","type":"uint256"}],"name":"FeeCollected","type":"event"},{"anonymous":false,"inputs":[{"indexed":true,"internalType":"address","name":"operator","type":"address"},{"indexed":false,"internalType":"address[]","name":"router","type":"address[]"}],"name":"RouterAllowed","type":"event"},{"anonymous":false,"inputs":[{"indexed":true,"internalType":"address","name":"operator","type":"address"},{"indexed":false,"internalType":"address[]","name":"router","type":"address[]"}],"name":"RouterDenied","type":"event"},{"inputs":[{"internalType":"address[]","name":"router","type":"address[]"}],"name":"addRouters","outputs":[],"stateMutability":"nonpayable","type":"function"},{"inputs":[],"name":"getRouterList","outputs":[{"internalType":"address[]","name":"","type":"address[]"}],"stateMutability":"pure","type":"function"},{"inputs":[{"internalType":"address","name":"router","type":"address"},{"internalType":"uint256","name":"fromTokenWithFee","type":"uint256"},{"internalType":"uint256","name":"fromAmt","type":"uint256"},{"internalType":"uint256","name":"toTokenWithFee","type":"uint256"},{"internalType":"uint256","name":"minReturnAmt","type":"uint256"},{"internalType":"bytes","name":"callData","type":"bytes"}],"name":"proxySwapV2","outputs":[],"stateMutability":"payable","type":"function"},{"inputs":[{"internalType":"address[]","name":"router","type":"address[]"}],"name":"removeRouters","outputs":[],"stateMutability":"nonpayable","type":"function"}],"evm":{"bytecode":{"linkReferences":{},"object":"608060405234801561001057600080fd5b5061025b806100206000396000f3fe60806040526004361061003f5760003560e01c80634b01f85e146100445780635580e90414610044578063e5e8894b14610065578063f6a2ddd81461007c575b600080fd5b34801561005057600080fd5b5061006361005f3660046100ab565b5050565b005b610063610073366004610120565b50505050505050565b34801561008857600080fd5b50604080516000815260208101918290526100a2916101d8565b60405180910390f35b600080602083850312156100be57600080fd5b823567ffffffffffffffff808211156100d657600080fd5b818501915085601f8301126100ea57600080fd5b8135818111156100f957600080fd5b8660208260051b850101111561010e57600080fd5b60209290920196919550909350505050565b600080600080600080600060c0888a03121561013b57600080fd5b87356001600160a01b038116811461015257600080fd5b96506020880135955060408801359450606088013593506080880135925060a088013567ffffffffffffffff8082111561018b57600080fd5b818a0191508a601f83011261019f57600080fd5b8135818111156101ae57600080fd5b8b60208285010111156101c057600080fd5b60208301945080935050505092959891949750929550565b6020808252825182820181905260009190848201906040850190845b818110156102195783516001600160a01b0316835292840192918401916001016101f4565b5090969550505050505056fea2646970667358221220a9ce3c471a54da620de84c1d1bc8c8399d6193f0567ea42e86891a229e3c7cf564736f6c63430008140033","opcodes":"PUSH1 0x80 PUSH1 0x40 MSTORE CALLVALUE DUP1 ISZERO PUSH2 0x10 JUMPI PUSH1 0x0 DUP1 REVERT JUMPDEST POP PUSH2 0x25B DUP1 PUSH2 0x20 PUSH1 0x0 CODECOPY PUSH1 0x0 RETURN INVALID PUSH1 0x80 PUSH1 0x40 MSTORE PUSH1 0x4 CALLDATASIZE LT PUSH2 0x3F JUMPI PUSH1 0x0 CALLDATALOAD PUSH1 0xE0 SHR DUP1 PUSH4 0x4B01F85E EQ PUSH2 0x44 JUMPI DUP1 PUSH4 0x5580E904 EQ PUSH2 0x44 JUMPI DUP1 PUSH4 0xE5E8894B EQ PUSH2 0x65 JUMPI DUP1 PUSH4 0xF6A2DDD8 EQ PUSH2 0x7C JUMPI JUMPDEST PUSH1 0x0 DUP1 REVERT JUMPDEST CALLVALUE DUP1 ISZERO PUSH2 0x50 JUMPI PUSH1 0x0 DUP1 REVERT JUMPDEST POP PUSH2 0x63 PUSH2 0x5F CALLDATASIZE PUSH1 0x4 PUSH2 0xAB JUMP JUMPDEST POP POP JUMP JUMPDEST STOP JUMPDEST PUSH2 0x63 PUSH2 0x73 CALLDATASIZE PUSH1 0x4 PUSH2 0x120 JUMP JUMPDEST POP POP POP POP POP POP POP JUMP JUMPDEST CALLVALUE DUP1 ISZERO PUSH2 0x88 JUMPI PUSH1 0x0 DUP1 REVERT JUMPDEST POP PUSH1 0x40 DUP1 MLOAD PUSH1 0x0 DUP2 MSTORE PUSH1 0x20 DUP2 ADD SWAP2 DUP3 SWAP1 MSTORE PUSH2 0xA2 SWAP2 PUSH2 0x1D8 JUMP JUMPDEST PUSH1 0x40 MLOAD DUP1 SWAP2 SUB SWAP1 RETURN JUMPDEST PUSH1 0x0 DUP1 PUSH1 0x20 DUP4 DUP6 SUB SLT ISZERO PUSH2 0xBE JUMPI PUSH1 0x0 DUP1 REVERT JUMPDEST DUP3 CALLDATALOAD PUSH8 0xFFFFFFFFFFFFFFFF DUP1 DUP3 GT ISZERO PUSH2 0xD6 JUMPI PUSH1 0x0 DUP1 REVERT JUMPDEST DUP2 DUP6 ADD SWAP2 POP DUP6 PUSH1 0x1F DUP4 ADD SLT PUSH2 0xEA JUMPI PUSH1 0x0 DUP1 REVERT JUMPDEST DUP2 CALLDATALOAD DUP2 DUP2 GT ISZERO PUSH2 0xF9 JUMPI PUSH1 0x0 DUP1 REVERT JUMPDEST DUP7 PUSH1 0x20 DUP3 PUSH1 0x5 SHL DUP6 ADD ADD GT ISZERO PUSH2 0x10E JUMPI PUSH1 0x0 DUP1 REVERT JUMPDEST PUSH1 0x20 SWAP3 SWAP1 SWAP3 ADD SWAP7 SWAP2 SWAP6 POP SWAP1 SWAP4 POP POP POP POP JUMP JUMPDEST PUSH1 0x0 DUP1 PUSH1 0x0 DUP1 PUSH1 0x0 DUP1 PUSH1 0x0 PUSH1 0xC0 DUP9 DUP11 SUB SLT ISZERO PUSH2 0x13B JUMPI PUSH1 0x0 DUP1 REVERT JUMPDEST DUP8 CALLDATALOAD PUSH1 0x1 PUSH1 0x1 PUSH1 0xA0 SHL SUB DUP2 AND DUP2 EQ PUSH2 0x152 JUMPI PUSH1 0x0 DUP1 REVERT JUMPDEST SWAP7 POP PUSH1 0x20 DUP9 ADD CALLDATALOAD SWAP6 POP PUSH1 0x40 DUP9 ADD CALLDATALOAD SWAP5 POP PUSH1 0x60 DUP9 ADD CALLDATALOAD SWAP4 POP PUSH1 0x80 DUP9 ADD CALLDATALOAD SWAP3 POP PUSH1 0xA0 DUP9 ADD CALLDATALOAD PUSH8 0xFFFFFFFFFFFFFFFF DUP1 DUP3 GT ISZERO PUSH2 0x18B JUMPI PUSH1 0x0 DUP1 REVERT JUMPDEST DUP2 DUP11 ADD SWAP2 POP DUP11 PUSH1 0x1F DUP4 ADD SLT PUSH2 0x19F JUMPI PUSH1 0x0 DUP1 REVERT JUMPDEST DUP2 CALLDATALOAD DUP2 DUP2 GT ISZERO PUSH2 0x1AE JUMPI PUSH1 0x0 DUP1 REVERT JUMPDEST DUP12 PUSH1 0x20 DUP3 DUP6 ADD ADD GT ISZERO PUSH2 0x1C0 JUMPI PUSH1 0x0 DUP1 REVERT JUMPDEST PUSH1 0x20 DUP4 ADD SWAP5 POP DUP1 SWAP4 POP POP POP POP SWAP3 SWAP6 SWAP9 SWAP2 SWAP5 SWAP8 POP SWAP3 SWAP6 POP JUMP JUMPDEST PUSH1 0x20 DUP1 DUP3 MSTORE DUP3 MLOAD DUP3 DUP3 ADD DUP2 SWAP1 MSTORE PUSH1 0x0 SWAP2 SWAP1 DUP5 DUP3 ADD SWAP1 PUSH1 0x40 DUP6 ADD SWAP1 DUP5 JUMPDEST DUP2 DUP2 LT ISZERO PUSH2 0x219 JUMPI DUP4 MLOAD PUSH1 0x1 PUSH1 0x1 PUSH1 0xA0 SHL SUB AND DUP4 MSTORE SWAP3 DUP5 ADD SWAP3 SWAP2 DUP5 ADD SWAP2 PUSH1 0x1 ADD PUSH2 0x1F4 JUMP JUMPDEST POP SWAP1 SWAP7 SWAP6 POP POP POP POP POP POP JUMP INVALID LOG2 PUSH5 0x6970667358 0x22 SLT KECCAK256 0xA9 0xCE EXTCODECOPY SELFBALANCE BYTE SLOAD 0xDA PUSH3 0xDE84C SAR SHL 0xC8 0xC8 CODECOPY SWAP14 PUSH2 0x93F0 JUMP PUSH31 0xA42E86891A229E3C7CF564736F6C6343000814003300000000000000000000 "},"methodIdentifiers":{"addRouters(address[])":"4b01f85e","getRouterList()":"f6a2ddd8","proxySwapV2(address,uint256,uint256,uint256,uint256,bytes)":"e5e8894b","removeRouters(address[])":"5580e904"}}}}}