{"contracts/test/MockPancakeSwapV2Router.sol":{"MockPancakeSwapV2Router":{"abi":[{"inputs":[],"name":"WETH","outputs":[{"internalType":"address","name":"","type":"address"}],"stateMutability":"pure","type":"function"},{"inputs":[],"name":"factory","outputs":[{"internalType":"address","name":"","type":"address"}],"stateMutability":"pure","type":"function"},{"inputs":[{"internalType":"uint256","name":"amountOut","type":"uint256"},{"internalType":"uint256","name":"reserveIn","type":"uint256"},{"internalType":"uint256","name":"reserveOut","type":"uint256"}],"name":"getAmountIn","outputs":[{"internalType":"uint256","name":"amountIn","type":"uint256"}],"stateMutability":"pure","type":"function"},{"inputs":[{"internalType":"uint256","name":"amountIn","type":"uint256"},{"internalType":"uint256","name":"reserveIn","type":"uint256"},{"internalType":"uint256","name":"reserveOut","type":"uint256"}],"name":"getAmountOut","outputs":[{"internalType":"uint256","name":"amountOut","type":"uint256"}],"stateMutability":"pure","type":"function"},{"inputs":[{"internalType":"uint256","name":"amountOut","type":"uint256"},{"internalType":"address[]","name":"path","type":"address[]"}],"name":"getAmountsIn","outputs":[{"internalType":"uint256[]","name":"amounts","type":"uint256[]"}],"stateMutability":"pure","type":"function"},{"inputs":[{"internalType":"uint256","name":"amountIn","type":"uint256"},{"internalType":"address[]","name":"path","type":"address[]"}],"name":"getAmountsOut","outputs":[{"internalType":"uint256[]","name":"amounts","type":"uint256[]"}],"stateMutability":"pure","type":"function"},{"inputs":[{"internalType":"uint256","name":"amountA","type":"uint256"},{"internalType":"uint256","name":"reserveA","type":"uint256"},{"internalType":"uint256","name":"reserveB","type":"uint256"}],"name":"quote","outputs":[{"internalType":"uint256","name":"amountB","type":"uint256"}],"stateMutability":"pure","type":"function"},{"inputs":[{"internalType":"uint256","name":"amountOut","type":"uint256"},{"internalType":"address[]","name":"path","type":"address[]"},{"internalType":"address","name":"to","type":"address"},{"internalType":"uint256","name":"deadline","type":"uint256"}],"name":"swapETHForExactTokens","outputs":[{"internalType":"uint256[]","name":"amounts","type":"uint256[]"}],"stateMutability":"payable","type":"function"},{"inputs":[{"internalType":"uint256","name":"amountOutMin","type":"uint256"},{"internalType":"address[]","name":"path","type":"address[]"},{"internalType":"address","name":"to","type":"address"},{"internalType":"uint256","name":"deadline","type":"uint256"}],"name":"swapExactETHForTokens","outputs":[{"internalType":"uint256[]","name":"amounts","type":"uint256[]"}],"stateMutability":"payable","type":"function"},{"inputs":[{"internalType":"uint256","name":"amountIn","type":"uint256"},{"internalType":"uint256","name":"amountOutMin","type":"uint256"},{"internalType":"address[]","name":"path","type":"address[]"},{"internalType":"address","name":"to","type":"address"},{"internalType":"uint256","name":"deadline","type":"uint256"}],"name":"swapExactTokensForETH","outputs":[{"internalType":"uint256[]","name":"amounts","type":"uint256[]"}],"stateMutability":"nonpayable","type":"function"},{"inputs":[{"internalType":"uint256","name":"amountIn","type":"uint256"},{"internalType":"uint256","name":"amountOutMin","type":"uint256"},{"internalType":"address[]","name":"path","type":"address[]"},{"internalType":"address","name":"to","type":"address"},{"internalType":"uint256","name":"deadline","type":"uint256"}],"name":"swapExactTokensForTokens","outputs":[{"internalType":"uint256[]","name":"amounts","type":"uint256[]"}],"stateMutability":"nonpayable","type":"function"},{"inputs":[{"internalType":"uint256","name":"amountOut","type":"uint256"},{"internalType":"uint256","name":"amountInMax","type":"uint256"},{"internalType":"address[]","name":"path","type":"address[]"},{"internalType":"address","name":"to","type":"address"},{"internalType":"uint256","name":"deadline","type":"uint256"}],"name":"swapTokensForExactETH","outputs":[{"internalType":"uint256[]","name":"amounts","type":"uint256[]"}],"stateMutability":"nonpayable","type":"function"},{"inputs":[{"internalType":"uint256","name":"amountOut","type":"uint256"},{"internalType":"uint256","name":"amountInMax","type":"uint256"},{"internalType":"address[]","name":"path","type":"address[]"},{"internalType":"address","name":"to","type":"address"},{"internalType":"uint256","name":"deadline","type":"uint256"}],"name":"swapTokensForExactTokens","outputs":[{"internalType":"uint256[]","name":"amounts","type":"uint256[]"}],"stateMutability":"nonpayable","type":"function"}],"evm":{"bytecode":{"linkReferences":{},"object":"608060405234801561001057600080fd5b5061056c806100206000396000f3fe6080604052600436106100c25760003560e01c806385f8c2591161007f578063ad615dec11610059578063ad615dec146100c7578063c45a01551461017c578063d06ca61f14610129578063fb3bdb411461016957600080fd5b806385f8c259146100c75780638803dbee14610149578063ad5c46481461017c57600080fd5b8063054d50d4146100c757806318cbafe5146100fc5780631f00ca741461012957806338ed1739146100fc5780634a25d94a146101495780637ff36ab514610169575b600080fd5b3480156100d357600080fd5b506100e96100e2366004610326565b5090919050565b6040519081526020015b60405180910390f35b34801561010857600080fd5b5061011c6101173660046103ba565b610198565b6040516100f3919061042a565b34801561013557600080fd5b5061011c61014436600461046e565b610202565b34801561015557600080fd5b5061011c6101643660046103ba565b610269565b61011c6101773660046104ba565b6102bd565b34801561018857600080fd5b50604051600081526020016100f3565b604080516002808252606080830184529260208301908036833701905050905086816000815181106101cc576101cc610520565b60200260200101818152505085816001815181106101ec576101ec610520565b6020026020010181815250509695505050505050565b6040805160028082526060808301845292602083019080368337019050509050838160008151811061023657610236610520565b602002602001018181525050838160018151811061025657610256610520565b6020026020010181815250509392505050565b6040805160028082526060808301845292602083019080368337019050509050858160008151811061029d5761029d610520565b60200260200101818152505086816001815181106101ec576101ec610520565b604080516002808252606080830184529260208301908036833701905050905034816000815181106102f1576102f1610520565b602002602001018181525050858160018151811061031157610311610520565b60200260200101818152505095945050505050565b60008060006060848603121561033b57600080fd5b505081359360208301359350604090920135919050565b60008083601f84011261036457600080fd5b50813567ffffffffffffffff81111561037c57600080fd5b6020830191508360208260051b850101111561039757600080fd5b9250929050565b80356001600160a01b03811681146103b557600080fd5b919050565b60008060008060008060a087890312156103d357600080fd5b8635955060208701359450604087013567ffffffffffffffff8111156103f857600080fd5b61040489828a01610352565b909550935061041790506060880161039e565b9150608087013590509295509295509295565b6020808252825182820181905260009190848201906040850190845b8181101561046257835183529284019291840191600101610446565b50909695505050505050565b60008060006040848603121561048357600080fd5b83359250602084013567ffffffffffffffff8111156104a157600080fd5b6104ad86828701610352565b9497909650939450505050565b6000806000806000608086880312156104d257600080fd5b85359450602086013567ffffffffffffffff8111156104f057600080fd5b6104fc88828901610352565b909550935061050f90506040870161039e565b949793965091946060013592915050565b634e487b7160e01b600052603260045260246000fdfea2646970667358221220a1dc6c0ee79aae60205742e6fc9caa0dc51f6353dbbf1decfa79047a2edd51b764736f6c63430008140033","opcodes":"PUSH1 0x80 PUSH1 0x40 MSTORE CALLVALUE DUP1 ISZERO PUSH2 0x10 JUMPI PUSH1 0x0 DUP1 REVERT JUMPDEST POP PUSH2 0x56C DUP1 PUSH2 0x20 PUSH1 0x0 CODECOPY PUSH1 0x0 RETURN INVALID PUSH1 0x80 PUSH1 0x40 MSTORE PUSH1 0x4 CALLDATASIZE LT PUSH2 0xC2 JUMPI PUSH1 0x0 CALLDATALOAD PUSH1 0xE0 SHR DUP1 PUSH4 0x85F8C259 GT PUSH2 0x7F JUMPI DUP1 PUSH4 0xAD615DEC GT PUSH2 0x59 JUMPI DUP1 PUSH4 0xAD615DEC EQ PUSH2 0xC7 JUMPI DUP1 PUSH4 0xC45A0155 EQ PUSH2 0x17C JUMPI DUP1 PUSH4 0xD06CA61F EQ PUSH2 0x129 JUMPI DUP1 PUSH4 0xFB3BDB41 EQ PUSH2 0x169 JUMPI PUSH1 0x0 DUP1 REVERT JUMPDEST DUP1 PUSH4 0x85F8C259 EQ PUSH2 0xC7 JUMPI DUP1 PUSH4 0x8803DBEE EQ PUSH2 0x149 JUMPI DUP1 PUSH4 0xAD5C4648 EQ PUSH2 0x17C JUMPI PUSH1 0x0 DUP1 REVERT JUMPDEST DUP1 PUSH4 0x54D50D4 EQ PUSH2 0xC7 JUMPI DUP1 PUSH4 0x18CBAFE5 EQ PUSH2 0xFC JUMPI DUP1 PUSH4 0x1F00CA74 EQ PUSH2 0x129 JUMPI DUP1 PUSH4 0x38ED1739 EQ PUSH2 0xFC JUMPI DUP1 PUSH4 0x4A25D94A EQ PUSH2 0x149 JUMPI DUP1 PUSH4 0x7FF36AB5 EQ PUSH2 0x169 JUMPI JUMPDEST PUSH1 0x0 DUP1 REVERT JUMPDEST CALLVALUE DUP1 ISZERO PUSH2 0xD3 JUMPI PUSH1 0x0 DUP1 REVERT JUMPDEST POP PUSH2 0xE9 PUSH2 0xE2 CALLDATASIZE PUSH1 0x4 PUSH2 0x326 JUMP JUMPDEST POP SWAP1 SWAP2 SWAP1 POP JUMP JUMPDEST PUSH1 0x40 MLOAD SWAP1 DUP2 MSTORE PUSH1 0x20 ADD JUMPDEST PUSH1 0x40 MLOAD DUP1 SWAP2 SUB SWAP1 RETURN JUMPDEST CALLVALUE DUP1 ISZERO PUSH2 0x108 JUMPI PUSH1 0x0 DUP1 REVERT JUMPDEST POP PUSH2 0x11C PUSH2 0x117 CALLDATASIZE PUSH1 0x4 PUSH2 0x3BA JUMP JUMPDEST PUSH2 0x198 JUMP JUMPDEST PUSH1 0x40 MLOAD PUSH2 0xF3 SWAP2 SWAP1 PUSH2 0x42A JUMP JUMPDEST CALLVALUE DUP1 ISZERO PUSH2 0x135 JUMPI PUSH1 0x0 DUP1 REVERT JUMPDEST POP PUSH2 0x11C PUSH2 0x144 CALLDATASIZE PUSH1 0x4 PUSH2 0x46E JUMP JUMPDEST PUSH2 0x202 JUMP JUMPDEST CALLVALUE DUP1 ISZERO PUSH2 0x155 JUMPI PUSH1 0x0 DUP1 REVERT JUMPDEST POP PUSH2 0x11C PUSH2 0x164 CALLDATASIZE PUSH1 0x4 PUSH2 0x3BA JUMP JUMPDEST PUSH2 0x269 JUMP JUMPDEST PUSH2 0x11C PUSH2 0x177 CALLDATASIZE PUSH1 0x4 PUSH2 0x4BA JUMP JUMPDEST PUSH2 0x2BD JUMP JUMPDEST CALLVALUE DUP1 ISZERO PUSH2 0x188 JUMPI PUSH1 0x0 DUP1 REVERT JUMPDEST POP PUSH1 0x40 MLOAD PUSH1 0x0 DUP2 MSTORE PUSH1 0x20 ADD PUSH2 0xF3 JUMP JUMPDEST PUSH1 0x40 DUP1 MLOAD PUSH1 0x2 DUP1 DUP3 MSTORE PUSH1 0x60 DUP1 DUP4 ADD DUP5 MSTORE SWAP3 PUSH1 0x20 DUP4 ADD SWAP1 DUP1 CALLDATASIZE DUP4 CALLDATACOPY ADD SWAP1 POP POP SWAP1 POP DUP7 DUP2 PUSH1 0x0 DUP2 MLOAD DUP2 LT PUSH2 0x1CC JUMPI PUSH2 0x1CC PUSH2 0x520 JUMP JUMPDEST PUSH1 0x20 MUL PUSH1 0x20 ADD ADD DUP2 DUP2 MSTORE POP POP DUP6 DUP2 PUSH1 0x1 DUP2 MLOAD DUP2 LT PUSH2 0x1EC JUMPI PUSH2 0x1EC PUSH2 0x520 JUMP JUMPDEST PUSH1 0x20 MUL PUSH1 0x20 ADD ADD DUP2 DUP2 MSTORE POP POP SWAP7 SWAP6 POP POP POP POP POP POP JUMP JUMPDEST PUSH1 0x40 DUP1 MLOAD PUSH1 0x2 DUP1 DUP3 MSTORE PUSH1 0x60 DUP1 DUP4 ADD DUP5 MSTORE SWAP3 PUSH1 0x20 DUP4 ADD SWAP1 DUP1 CALLDATASIZE DUP4 CALLDATACOPY ADD SWAP1 POP POP SWAP1 POP DUP4 DUP2 PUSH1 0x0 DUP2 MLOAD DUP2 LT PUSH2 0x236 JUMPI PUSH2 0x236 PUSH2 0x520 JUMP JUMPDEST PUSH1 0x20 MUL PUSH1 0x20 ADD ADD DUP2 DUP2 MSTORE POP POP DUP4 DUP2 PUSH1 0x1 DUP2 MLOAD DUP2 LT PUSH2 0x256 JUMPI PUSH2 0x256 PUSH2 0x520 JUMP JUMPDEST PUSH1 0x20 MUL PUSH1 0x20 ADD ADD DUP2 DUP2 MSTORE POP POP SWAP4 SWAP3 POP POP POP JUMP JUMPDEST PUSH1 0x40 DUP1 MLOAD PUSH1 0x2 DUP1 DUP3 MSTORE PUSH1 0x60 DUP1 DUP4 ADD DUP5 MSTORE SWAP3 PUSH1 0x20 DUP4 ADD SWAP1 DUP1 CALLDATASIZE DUP4 CALLDATACOPY ADD SWAP1 POP POP SWAP1 POP DUP6 DUP2 PUSH1 0x0 DUP2 MLOAD DUP2 LT PUSH2 0x29D JUMPI PUSH2 0x29D PUSH2 0x520 JUMP JUMPDEST PUSH1 0x20 MUL PUSH1 0x20 ADD ADD DUP2 DUP2 MSTORE POP POP DUP7 DUP2 PUSH1 0x1 DUP2 MLOAD DUP2 LT PUSH2 0x1EC JUMPI PUSH2 0x1EC PUSH2 0x520 JUMP JUMPDEST PUSH1 0x40 DUP1 MLOAD PUSH1 0x2 DUP1 DUP3 MSTORE PUSH1 0x60 DUP1 DUP4 ADD DUP5 MSTORE SWAP3 PUSH1 0x20 DUP4 ADD SWAP1 DUP1 CALLDATASIZE DUP4 CALLDATACOPY ADD SWAP1 POP POP SWAP1 POP CALLVALUE DUP2 PUSH1 0x0 DUP2 MLOAD DUP2 LT PUSH2 0x2F1 JUMPI PUSH2 0x2F1 PUSH2 0x520 JUMP JUMPDEST PUSH1 0x20 MUL PUSH1 0x20 ADD ADD DUP2 DUP2 MSTORE POP POP DUP6 DUP2 PUSH1 0x1 DUP2 MLOAD DUP2 LT PUSH2 0x311 JUMPI PUSH2 0x311 PUSH2 0x520 JUMP JUMPDEST PUSH1 0x20 MUL PUSH1 0x20 ADD ADD DUP2 DUP2 MSTORE POP POP SWAP6 SWAP5 POP POP POP POP POP JUMP JUMPDEST PUSH1 0x0 DUP1 PUSH1 0x0 PUSH1 0x60 DUP5 DUP7 SUB SLT ISZERO PUSH2 0x33B JUMPI PUSH1 0x0 DUP1 REVERT JUMPDEST POP POP DUP2 CALLDATALOAD SWAP4 PUSH1 0x20 DUP4 ADD CALLDATALOAD SWAP4 POP PUSH1 0x40 SWAP1 SWAP3 ADD CALLDATALOAD SWAP2 SWAP1 POP JUMP JUMPDEST PUSH1 0x0 DUP1 DUP4 PUSH1 0x1F DUP5 ADD SLT PUSH2 0x364 JUMPI PUSH1 0x0 DUP1 REVERT JUMPDEST POP DUP2 CALLDATALOAD PUSH8 0xFFFFFFFFFFFFFFFF DUP2 GT ISZERO PUSH2 0x37C JUMPI PUSH1 0x0 DUP1 REVERT JUMPDEST PUSH1 0x20 DUP4 ADD SWAP2 POP DUP4 PUSH1 0x20 DUP3 PUSH1 0x5 SHL DUP6 ADD ADD GT ISZERO PUSH2 0x397 JUMPI PUSH1 0x0 DUP1 REVERT JUMPDEST SWAP3 POP SWAP3 SWAP1 POP JUMP JUMPDEST DUP1 CALLDATALOAD PUSH1 0x1 PUSH1 0x1 PUSH1 0xA0 SHL SUB DUP2 AND DUP2 EQ PUSH2 0x3B5 JUMPI PUSH1 0x0 DUP1 REVERT JUMPDEST SWAP2 SWAP1 POP JUMP JUMPDEST PUSH1 0x0 DUP1 PUSH1 0x0 DUP1 PUSH1 0x0 DUP1 PUSH1 0xA0 DUP8 DUP10 SUB SLT ISZERO PUSH2 0x3D3 JUMPI PUSH1 0x0 DUP1 REVERT JUMPDEST DUP7 CALLDATALOAD SWAP6 POP PUSH1 0x20 DUP8 ADD CALLDATALOAD SWAP5 POP PUSH1 0x40 DUP8 ADD CALLDATALOAD PUSH8 0xFFFFFFFFFFFFFFFF DUP2 GT ISZERO PUSH2 0x3F8 JUMPI PUSH1 0x0 DUP1 REVERT JUMPDEST PUSH2 0x404 DUP10 DUP3 DUP11 ADD PUSH2 0x352 JUMP JUMPDEST SWAP1 SWAP6 POP SWAP4 POP PUSH2 0x417 SWAP1 POP PUSH1 0x60 DUP9 ADD PUSH2 0x39E JUMP JUMPDEST SWAP2 POP PUSH1 0x80 DUP8 ADD CALLDATALOAD SWAP1 POP SWAP3 SWAP6 POP SWAP3 SWAP6 POP SWAP3 SWAP6 JUMP JUMPDEST PUSH1 0x20 DUP1 DUP3 MSTORE DUP3 MLOAD DUP3 DUP3 ADD DUP2 SWAP1 MSTORE PUSH1 0x0 SWAP2 SWAP1 DUP5 DUP3 ADD SWAP1 PUSH1 0x40 DUP6 ADD SWAP1 DUP5 JUMPDEST DUP2 DUP2 LT ISZERO PUSH2 0x462 JUMPI DUP4 MLOAD DUP4 MSTORE SWAP3 DUP5 ADD SWAP3 SWAP2 DUP5 ADD SWAP2 PUSH1 0x1 ADD PUSH2 0x446 JUMP JUMPDEST POP SWAP1 SWAP7 SWAP6 POP POP POP POP POP POP JUMP JUMPDEST PUSH1 0x0 DUP1 PUSH1 0x0 PUSH1 0x40 DUP5 DUP7 SUB SLT ISZERO PUSH2 0x483 JUMPI PUSH1 0x0 DUP1 REVERT JUMPDEST DUP4 CALLDATALOAD SWAP3 POP PUSH1 0x20 DUP5 ADD CALLDATALOAD PUSH8 0xFFFFFFFFFFFFFFFF DUP2 GT ISZERO PUSH2 0x4A1 JUMPI PUSH1 0x0 DUP1 REVERT JUMPDEST PUSH2 0x4AD DUP7 DUP3 DUP8 ADD PUSH2 0x352 JUMP JUMPDEST SWAP5 SWAP8 SWAP1 SWAP7 POP SWAP4 SWAP5 POP POP POP POP JUMP JUMPDEST PUSH1 0x0 DUP1 PUSH1 0x0 DUP1 PUSH1 0x0 PUSH1 0x80 DUP7 DUP9 SUB SLT ISZERO PUSH2 0x4D2 JUMPI PUSH1 0x0 DUP1 REVERT JUMPDEST DUP6 CALLDATALOAD SWAP5 POP PUSH1 0x20 DUP7 ADD CALLDATALOAD PUSH8 0xFFFFFFFFFFFFFFFF DUP2 GT ISZERO PUSH2 0x4F0 JUMPI PUSH1 0x0 DUP1 REVERT JUMPDEST PUSH2 0x4FC DUP9 DUP3 DUP10 ADD PUSH2 0x352 JUMP JUMPDEST SWAP1 SWAP6 POP SWAP4 POP PUSH2 0x50F SWAP1 POP PUSH1 0x40 DUP8 ADD PUSH2 0x39E JUMP JUMPDEST SWAP5 SWAP8 SWAP4 SWAP7 POP SWAP2 SWAP5 PUSH1 0x60 ADD CALLDATALOAD SWAP3 SWAP2 POP POP JUMP JUMPDEST PUSH4 0x4E487B71 PUSH1 0xE0 SHL PUSH1 0x0 MSTORE PUSH1 0x32 PUSH1 0x4 MSTORE PUSH1 0x24 PUSH1 0x0 REVERT INVALID LOG2 PUSH5 0x6970667358 0x22 SLT KECCAK256 LOG1 0xDC PUSH13 0xEE79AAE60205742E6FC9CAA0D 0xC5 0x1F PUSH4 0x53DBBF1D 0xEC STATICCALL PUSH26 0x47A2EDD51B764736F6C63430008140033000000000000000000 "},"methodIdentifiers":{"WETH()":"ad5c4648","factory()":"c45a0155","getAmountIn(uint256,uint256,uint256)":"85f8c259","getAmountOut(uint256,uint256,uint256)":"054d50d4","getAmountsIn(uint256,address[])":"1f00ca74","getAmountsOut(uint256,address[])":"d06ca61f","quote(uint256,uint256,uint256)":"ad615dec","swapETHForExactTokens(uint256,address[],address,uint256)":"fb3bdb41","swapExactETHForTokens(uint256,address[],address,uint256)":"7ff36ab5","swapExactTokensForETH(uint256,uint256,address[],address,uint256)":"18cbafe5","swapExactTokensForTokens(uint256,uint256,address[],address,uint256)":"38ed1739","swapTokensForExactETH(uint256,uint256,address[],address,uint256)":"4a25d94a","swapTokensForExactTokens(uint256,uint256,address[],address,uint256)":"8803dbee"}}}}}