{
  "_format": "hh-sol-artifact-1",
  "contractName": "MockPancakeSwapV2Router",
  "sourceName": "contracts/test/MockPancakeSwapV2Router.sol",
  "abi": [
    {
      "inputs": [],
      "name": "WETH",
      "outputs": [
        {
          "internalType": "address",
          "name": "",
          "type": "address"
        }
      ],
      "stateMutability": "pure",
      "type": "function"
    },
    {
      "inputs": [],
      "name": "factory",
      "outputs": [
        {
          "internalType": "address",
          "name": "",
          "type": "address"
        }
      ],
      "stateMutability": "pure",
      "type": "function"
    },
    {
      "inputs": [
        {
          "internalType": "uint256",
          "name": "amountOut",
          "type": "uint256"
        },
        {
          "internalType": "uint256",
          "name": "reserveIn",
          "type": "uint256"
        },
        {
          "internalType": "uint256",
          "name": "reserveOut",
          "type": "uint256"
        }
      ],
      "name": "getAmountIn",
      "outputs": [
        {
          "internalType": "uint256",
          "name": "amountIn",
          "type": "uint256"
        }
      ],
      "stateMutability": "pure",
      "type": "function"
    },
    {
      "inputs": [
        {
          "internalType": "uint256",
          "name": "amountIn",
          "type": "uint256"
        },
        {
          "internalType": "uint256",
          "name": "reserveIn",
          "type": "uint256"
        },
        {
          "internalType": "uint256",
          "name": "reserveOut",
          "type": "uint256"
        }
      ],
      "name": "getAmountOut",
      "outputs": [
        {
          "internalType": "uint256",
          "name": "amountOut",
          "type": "uint256"
        }
      ],
      "stateMutability": "pure",
      "type": "function"
    },
    {
      "inputs": [
        {
          "internalType": "uint256",
          "name": "amountOut",
          "type": "uint256"
        },
        {
          "internalType": "address[]",
          "name": "path",
          "type": "address[]"
        }
      ],
      "name": "getAmountsIn",
      "outputs": [
        {
          "internalType": "uint256[]",
          "name": "amounts",
          "type": "uint256[]"
        }
      ],
      "stateMutability": "pure",
      "type": "function"
    },
    {
      "inputs": [
        {
          "internalType": "uint256",
          "name": "amountIn",
          "type": "uint256"
        },
        {
          "internalType": "address[]",
          "name": "path",
          "type": "address[]"
        }
      ],
      "name": "getAmountsOut",
      "outputs": [
        {
          "internalType": "uint256[]",
          "name": "amounts",
          "type": "uint256[]"
        }
      ],
      "stateMutability": "pure",
      "type": "function"
    },
    {
      "inputs": [
        {
          "internalType": "uint256",
          "name": "amountA",
          "type": "uint256"
        },
        {
          "internalType": "uint256",
          "name": "reserveA",
          "type": "uint256"
        },
        {
          "internalType": "uint256",
          "name": "reserveB",
          "type": "uint256"
        }
      ],
      "name": "quote",
      "outputs": [
        {
          "internalType": "uint256",
          "name": "amountB",
          "type": "uint256"
        }
      ],
      "stateMutability": "pure",
      "type": "function"
    },
    {
      "inputs": [
        {
          "internalType": "uint256",
          "name": "amountOut",
          "type": "uint256"
        },
        {
          "internalType": "address[]",
          "name": "path",
          "type": "address[]"
        },
        {
          "internalType": "address",
          "name": "to",
          "type": "address"
        },
        {
          "internalType": "uint256",
          "name": "deadline",
          "type": "uint256"
        }
      ],
      "name": "swapETHForExactTokens",
      "outputs": [
        {
          "internalType": "uint256[]",
          "name": "amounts",
          "type": "uint256[]"
        }
      ],
      "stateMutability": "payable",
      "type": "function"
    },
    {
      "inputs": [
        {
          "internalType": "uint256",
          "name": "amountOutMin",
          "type": "uint256"
        },
        {
          "internalType": "address[]",
          "name": "path",
          "type": "address[]"
        },
        {
          "internalType": "address",
          "name": "to",
          "type": "address"
        },
        {
          "internalType": "uint256",
          "name": "deadline",
          "type": "uint256"
        }
      ],
      "name": "swapExactETHForTokens",
      "outputs": [
        {
          "internalType": "uint256[]",
          "name": "amounts",
          "type": "uint256[]"
        }
      ],
      "stateMutability": "payable",
      "type": "function"
    },
    {
      "inputs": [
        {
          "internalType": "uint256",
          "name": "amountIn",
          "type": "uint256"
        },
        {
          "internalType": "uint256",
          "name": "amountOutMin",
          "type": "uint256"
        },
        {
          "internalType": "address[]",
          "name": "path",
          "type": "address[]"
        },
        {
          "internalType": "address",
          "name": "to",
          "type": "address"
        },
        {
          "internalType": "uint256",
          "name": "deadline",
          "type": "uint256"
        }
      ],
      "name": "swapExactTokensForETH",
      "outputs": [
        {
          "internalType": "uint256[]",
          "name": "amounts",
          "type": "uint256[]"
        }
      ],
      "stateMutability": "nonpayable",
      "type": "function"
    },
    {
      "inputs": [
        {
          "internalType": "uint256",
          "name": "amountIn",
          "type": "uint256"
        },
        {
          "internalType": "uint256",
          "name": "amountOutMin",
          "type": "uint256"
        },
        {
          "internalType": "address[]",
          "name": "path",
          "type": "address[]"
        },
        {
          "internalType": "address",
          "name": "to",
          "type": "address"
        },
        {
          "internalType": "uint256",
          "name": "deadline",
          "type": "uint256"
        }
      ],
      "name": "swapExactTokensForTokens",
      "outputs": [
        {
          "internalType": "uint256[]",
          "name": "amounts",
          "type": "uint256[]"
        }
      ],
      "stateMutability": "nonpayable",
      "type": "function"
    },
    {
      "inputs": [
        {
          "internalType": "uint256",
          "name": "amountOut",
          "type": "uint256"
        },
        {
          "internalType": "uint256",
          "name": "amountInMax",
          "type": "uint256"
        },
        {
          "internalType": "address[]",
          "name": "path",
          "type": "address[]"
        },
        {
          "internalType": "address",
          "name": "to",
          "type": "address"
        },
        {
          "internalType": "uint256",
          "name": "deadline",
          "type": "uint256"
        }
      ],
      "name": "swapTokensForExactETH",
      "outputs": [
        {
          "internalType": "uint256[]",
          "name": "amounts",
          "type": "uint256[]"
        }
      ],
      "stateMutability": "nonpayable",
      "type": "function"
    },
    {
      "inputs": [
        {
          "internalType": "uint256",
          "name": "amountOut",
          "type": "uint256"
        },
        {
          "internalType": "uint256",
          "name": "amountInMax",
          "type": "uint256"
        },
        {
          "internalType": "address[]",
          "name": "path",
          "type": "address[]"
        },
        {
          "internalType": "address",
          "name": "to",
          "type": "address"
        },
        {
          "internalType": "uint256",
          "name": "deadline",
          "type": "uint256"
        }
      ],
      "name": "swapTokensForExactTokens",
      "outputs": [
        {
          "internalType": "uint256[]",
          "name": "amounts",
          "type": "uint256[]"
        }
      ],
      "stateMutability": "nonpayable",
      "type": "function"
    }
  ],
  "bytecode": "0x608060405234801561001057600080fd5b5061056c806100206000396000f3fe6080604052600436106100c25760003560e01c806385f8c2591161007f578063ad615dec11610059578063ad615dec146100c7578063c45a01551461017c578063d06ca61f14610129578063fb3bdb411461016957600080fd5b806385f8c259146100c75780638803dbee14610149578063ad5c46481461017c57600080fd5b8063054d50d4146100c757806318cbafe5146100fc5780631f00ca741461012957806338ed1739146100fc5780634a25d94a146101495780637ff36ab514610169575b600080fd5b3480156100d357600080fd5b506100e96100e2366004610326565b5090919050565b6040519081526020015b60405180910390f35b34801561010857600080fd5b5061011c6101173660046103ba565b610198565b6040516100f3919061042a565b34801561013557600080fd5b5061011c61014436600461046e565b610202565b34801561015557600080fd5b5061011c6101643660046103ba565b610269565b61011c6101773660046104ba565b6102bd565b34801561018857600080fd5b50604051600081526020016100f3565b604080516002808252606080830184529260208301908036833701905050905086816000815181106101cc576101cc610520565b60200260200101818152505085816001815181106101ec576101ec610520565b6020026020010181815250509695505050505050565b6040805160028082526060808301845292602083019080368337019050509050838160008151811061023657610236610520565b602002602001018181525050838160018151811061025657610256610520565b6020026020010181815250509392505050565b6040805160028082526060808301845292602083019080368337019050509050858160008151811061029d5761029d610520565b60200260200101818152505086816001815181106101ec576101ec610520565b604080516002808252606080830184529260208301908036833701905050905034816000815181106102f1576102f1610520565b602002602001018181525050858160018151811061031157610311610520565b60200260200101818152505095945050505050565b60008060006060848603121561033b57600080fd5b505081359360208301359350604090920135919050565b60008083601f84011261036457600080fd5b50813567ffffffffffffffff81111561037c57600080fd5b6020830191508360208260051b850101111561039757600080fd5b9250929050565b80356001600160a01b03811681146103b557600080fd5b919050565b60008060008060008060a087890312156103d357600080fd5b8635955060208701359450604087013567ffffffffffffffff8111156103f857600080fd5b61040489828a01610352565b909550935061041790506060880161039e565b9150608087013590509295509295509295565b6020808252825182820181905260009190848201906040850190845b8181101561046257835183529284019291840191600101610446565b50909695505050505050565b60008060006040848603121561048357600080fd5b83359250602084013567ffffffffffffffff8111156104a157600080fd5b6104ad86828701610352565b9497909650939450505050565b6000806000806000608086880312156104d257600080fd5b85359450602086013567ffffffffffffffff8111156104f057600080fd5b6104fc88828901610352565b909550935061050f90506040870161039e565b949793965091946060013592915050565b634e487b7160e01b600052603260045260246000fdfea2646970667358221220a1dc6c0ee79aae60205742e6fc9caa0dc51f6353dbbf1decfa79047a2edd51b764736f6c63430008140033",
  "linkReferences": {},
  "deployedLinkReferences": {}
}