{
  "_format": "hh-sol-artifact-1",
  "contractName": "MockBinanceProxyRouter",
  "sourceName": "contracts/test/MockBinanceProxyRouter.sol",
  "abi": [
    {
      "inputs": [
        {
          "internalType": "address",
          "name": "target",
          "type": "address"
        }
      ],
      "name": "AddressEmptyCode",
      "type": "error"
    },
    {
      "inputs": [
        {
          "internalType": "address",
          "name": "account",
          "type": "address"
        }
      ],
      "name": "AddressInsufficientBalance",
      "type": "error"
    },
    {
      "inputs": [],
      "name": "ApproveFailed",
      "type": "error"
    },
    {
      "inputs": [],
      "name": "FailedInnerCall",
      "type": "error"
    },
    {
      "inputs": [
        {
          "internalType": "uint256",
          "name": "fee",
          "type": "uint256"
        }
      ],
      "name": "InvalidFeeValue",
      "type": "error"
    },
    {
      "inputs": [
        {
          "internalType": "address",
          "name": "router",
          "type": "address"
        }
      ],
      "name": "InvalidRouter",
      "type": "error"
    },
    {
      "inputs": [
        {
          "internalType": "uint256",
          "name": "minReturnAmt",
          "type": "uint256"
        },
        {
          "internalType": "uint256",
          "name": "result",
          "type": "uint256"
        }
      ],
      "name": "MinReturnNotReached",
      "type": "error"
    },
    {
      "inputs": [],
      "name": "OnlyContractOwner",
      "type": "error"
    },
    {
      "inputs": [
        {
          "internalType": "address",
          "name": "token",
          "type": "address"
        }
      ],
      "name": "SafeERC20FailedOperation",
      "type": "error"
    },
    {
      "anonymous": false,
      "inputs": [
        {
          "indexed": true,
          "internalType": "address",
          "name": "token",
          "type": "address"
        },
        {
          "indexed": false,
          "internalType": "address",
          "name": "recipient",
          "type": "address"
        },
        {
          "indexed": false,
          "internalType": "uint256",
          "name": "amount",
          "type": "uint256"
        }
      ],
      "name": "FeeCollected",
      "type": "event"
    },
    {
      "anonymous": false,
      "inputs": [
        {
          "indexed": true,
          "internalType": "address",
          "name": "operator",
          "type": "address"
        },
        {
          "indexed": false,
          "internalType": "address[]",
          "name": "router",
          "type": "address[]"
        }
      ],
      "name": "RouterAllowed",
      "type": "event"
    },
    {
      "anonymous": false,
      "inputs": [
        {
          "indexed": true,
          "internalType": "address",
          "name": "operator",
          "type": "address"
        },
        {
          "indexed": false,
          "internalType": "address[]",
          "name": "router",
          "type": "address[]"
        }
      ],
      "name": "RouterDenied",
      "type": "event"
    },
    {
      "inputs": [
        {
          "internalType": "address[]",
          "name": "router",
          "type": "address[]"
        }
      ],
      "name": "addRouters",
      "outputs": [],
      "stateMutability": "nonpayable",
      "type": "function"
    },
    {
      "inputs": [],
      "name": "getRouterList",
      "outputs": [
        {
          "internalType": "address[]",
          "name": "",
          "type": "address[]"
        }
      ],
      "stateMutability": "pure",
      "type": "function"
    },
    {
      "inputs": [
        {
          "internalType": "address",
          "name": "router",
          "type": "address"
        },
        {
          "internalType": "uint256",
          "name": "fromTokenWithFee",
          "type": "uint256"
        },
        {
          "internalType": "uint256",
          "name": "fromAmt",
          "type": "uint256"
        },
        {
          "internalType": "uint256",
          "name": "toTokenWithFee",
          "type": "uint256"
        },
        {
          "internalType": "uint256",
          "name": "minReturnAmt",
          "type": "uint256"
        },
        {
          "internalType": "bytes",
          "name": "callData",
          "type": "bytes"
        }
      ],
      "name": "proxySwapV2",
      "outputs": [],
      "stateMutability": "payable",
      "type": "function"
    },
    {
      "inputs": [
        {
          "internalType": "address[]",
          "name": "router",
          "type": "address[]"
        }
      ],
      "name": "removeRouters",
      "outputs": [],
      "stateMutability": "nonpayable",
      "type": "function"
    }
  ],
  "bytecode": "0x608060405234801561001057600080fd5b506102c3806100206000396000f3fe60806040526004361061003f5760003560e01c80634b01f85e146100445780635580e90414610044578063e5e8894b14610065578063f6a2ddd814610078575b600080fd5b34801561005057600080fd5b5061006361005f366004610113565b5050565b005b610063610073366004610188565b6100a7565b34801561008457600080fd5b506040805160008152602081019182905261009e91610240565b60405180910390f35b6040516340c10f1960e01b81523360048201526024810184905284906001600160a01b038216906340c10f1990604401600060405180830381600087803b1580156100f157600080fd5b505af1158015610105573d6000803e3d6000fd5b505050505050505050505050565b6000806020838503121561012657600080fd5b823567ffffffffffffffff8082111561013e57600080fd5b818501915085601f83011261015257600080fd5b81358181111561016157600080fd5b8660208260051b850101111561017657600080fd5b60209290920196919550909350505050565b600080600080600080600060c0888a0312156101a357600080fd5b87356001600160a01b03811681146101ba57600080fd5b96506020880135955060408801359450606088013593506080880135925060a088013567ffffffffffffffff808211156101f357600080fd5b818a0191508a601f83011261020757600080fd5b81358181111561021657600080fd5b8b602082850101111561022857600080fd5b60208301945080935050505092959891949750929550565b6020808252825182820181905260009190848201906040850190845b818110156102815783516001600160a01b03168352928401929184019160010161025c565b5090969550505050505056fea2646970667358221220d4868fd3bc0e5c00084d356e8d08f6816dc74365942eb57f3d3f293a56110cab64736f6c63430008140033",
  "linkReferences": {},
  "deployedLinkReferences": {}
}