{
  "_format": "hh-sol-artifact-1",
  "contractName": "AtomicSwap",
  "sourceName": "contracts/AtomicSwap.sol",
  "abi": [
    {
      "inputs": [
        {
          "internalType": "address",
          "name": "_binanceProxyRouter",
          "type": "address"
        },
        {
          "internalType": "address",
          "name": "_pancakeSwapRouter",
          "type": "address"
        }
      ],
      "stateMutability": "nonpayable",
      "type": "constructor"
    },
    {
      "anonymous": false,
      "inputs": [
        {
          "indexed": true,
          "internalType": "address",
          "name": "token",
          "type": "address"
        },
        {
          "indexed": false,
          "internalType": "uint256",
          "name": "amount",
          "type": "uint256"
        }
      ],
      "name": "EmergencyWithdraw",
      "type": "event"
    },
    {
      "anonymous": false,
      "inputs": [
        {
          "indexed": true,
          "internalType": "address",
          "name": "previousOwner",
          "type": "address"
        },
        {
          "indexed": true,
          "internalType": "address",
          "name": "newOwner",
          "type": "address"
        }
      ],
      "name": "OwnershipTransferred",
      "type": "event"
    },
    {
      "anonymous": false,
      "inputs": [
        {
          "indexed": true,
          "internalType": "address",
          "name": "sourceToken",
          "type": "address"
        },
        {
          "indexed": true,
          "internalType": "address",
          "name": "targetToken",
          "type": "address"
        },
        {
          "indexed": false,
          "internalType": "uint256",
          "name": "sourceAmount",
          "type": "uint256"
        },
        {
          "indexed": false,
          "internalType": "uint256",
          "name": "targetAmount",
          "type": "uint256"
        },
        {
          "indexed": false,
          "internalType": "uint256",
          "name": "finalSourceAmount",
          "type": "uint256"
        }
      ],
      "name": "SwapExecuted",
      "type": "event"
    },
    {
      "inputs": [],
      "name": "BINANCE_PROXY_ROUTER",
      "outputs": [
        {
          "internalType": "address",
          "name": "",
          "type": "address"
        }
      ],
      "stateMutability": "view",
      "type": "function"
    },
    {
      "inputs": [],
      "name": "PANCAKESWAP_ROUTER",
      "outputs": [
        {
          "internalType": "address",
          "name": "",
          "type": "address"
        }
      ],
      "stateMutability": "view",
      "type": "function"
    },
    {
      "inputs": [],
      "name": "WBNB",
      "outputs": [
        {
          "internalType": "address",
          "name": "",
          "type": "address"
        }
      ],
      "stateMutability": "view",
      "type": "function"
    },
    {
      "inputs": [
        {
          "internalType": "address",
          "name": "token",
          "type": "address"
        },
        {
          "internalType": "uint256",
          "name": "amount",
          "type": "uint256"
        }
      ],
      "name": "emergencyWithdraw",
      "outputs": [],
      "stateMutability": "nonpayable",
      "type": "function"
    },
    {
      "inputs": [
        {
          "internalType": "address",
          "name": "sourceToken",
          "type": "address"
        },
        {
          "internalType": "address",
          "name": "targetToken",
          "type": "address"
        },
        {
          "internalType": "uint256",
          "name": "sourceAmount",
          "type": "uint256"
        },
        {
          "internalType": "uint256",
          "name": "targetMinAmount",
          "type": "uint256"
        },
        {
          "internalType": "uint256",
          "name": "finalSourceMinAmount",
          "type": "uint256"
        }
      ],
      "name": "executeAtomicSwapPair",
      "outputs": [],
      "stateMutability": "payable",
      "type": "function"
    },
    {
      "inputs": [],
      "name": "owner",
      "outputs": [
        {
          "internalType": "address",
          "name": "",
          "type": "address"
        }
      ],
      "stateMutability": "view",
      "type": "function"
    },
    {
      "inputs": [],
      "name": "renounceOwnership",
      "outputs": [],
      "stateMutability": "nonpayable",
      "type": "function"
    },
    {
      "inputs": [
        {
          "internalType": "address",
          "name": "newOwner",
          "type": "address"
        }
      ],
      "name": "transferOwnership",
      "outputs": [],
      "stateMutability": "nonpayable",
      "type": "function"
    },
    {
      "stateMutability": "payable",
      "type": "receive"
    }
  ],
  "bytecode": "0x60e06040523480156200001157600080fd5b5060405162001a0b38038062001a0b8339810160408190526200003491620001f3565b6001600055620000443362000184565b6001600160a01b038216620000a05760405162461bcd60e51b815260206004820152601c60248201527f496e76616c69642070726f787920726f7574657220616464726573730000000060448201526064015b60405180910390fd5b6001600160a01b038116620000f85760405162461bcd60e51b815260206004820152601e60248201527f496e76616c69642070616e63616b6520726f7574657220616464726573730000604482015260640162000097565b6001600160a01b03808316608052811660a0819052604080516315ab88c960e31b8152905163ad5c4648916004808201926020929091908290030181865afa15801562000149573d6000803e3d6000fd5b505050506040513d601f19601f820116820180604052508101906200016f91906200022b565b6001600160a01b031660c05250620002509050565b600180546001600160a01b038381166001600160a01b0319831681179093556040519116919082907f8be0079c531659141344cd1fd0a4f28419497f9722a3daafe3b4186f6b6457e090600090a35050565b80516001600160a01b0381168114620001ee57600080fd5b919050565b600080604083850312156200020757600080fd5b6200021283620001d6565b91506200022260208401620001d6565b90509250929050565b6000602082840312156200023e57600080fd5b6200024982620001d6565b9392505050565b60805160a05160c051611723620002e86000396000818160fd015281816102dd0152818161036201528181610527015281816105750152818161067d01528181610a2b01528181610a7801528181610c970152610ce4015260008181610185015281816106bf01526108f4015260008181610151015281816105bb0152818161064e0152818161081f01526108c601526117236000f3fe60806040526004361061007f5760003560e01c806395ccea671161004e57806395ccea671461011f5780639c145c1c1461013f578063e1a504e514610173578063f2fde38b146101a757600080fd5b80635e54d5081461008b578063715018a6146100a05780638da5cb5b146100b55780638dd95002146100eb57600080fd5b3661008657005b600080fd5b61009e6100993660046114ad565b6101c7565b005b3480156100ac57600080fd5b5061009e610bea565b3480156100c157600080fd5b506001546001600160a01b03165b6040516001600160a01b03909116815260200160405180910390f35b3480156100f757600080fd5b506100cf7f000000000000000000000000000000000000000000000000000000000000000081565b34801561012b57600080fd5b5061009e61013a3660046114fa565b610bfe565b34801561014b57600080fd5b506100cf7f000000000000000000000000000000000000000000000000000000000000000081565b34801561017f57600080fd5b506100cf7f000000000000000000000000000000000000000000000000000000000000000081565b3480156101b357600080fd5b5061009e6101c2366004611524565b610e65565b6101cf610ede565b6001600160a01b038516158015906101ef57506001600160a01b03841615155b6102385760405162461bcd60e51b8152602060048201526015602482015274496e76616c696420746f6b656e206164647265737360581b60448201526064015b60405180910390fd5b6000831161027f5760405162461bcd60e51b8152602060048201526014602482015273125b9d985b1a59081a5b9c1d5d08185b5bdd5b9d60621b604482015260640161022f565b60008211801561028f5750600081115b6102db5760405162461bcd60e51b815260206004820152601960248201527f496e76616c6964206d696e206f757470757420616d6f756e7400000000000000604482015260640161022f565b7f00000000000000000000000000000000000000000000000000000000000000006001600160a01b0316856001600160a01b03161461031b57600061031d565b825b34146103605760405162461bcd60e51b8152602060048201526012602482015271125b9d985b1a590810939088185b5bdd5b9d60721b604482015260640161022f565b7f00000000000000000000000000000000000000000000000000000000000000006001600160a01b0316856001600160a01b031614610525576040516370a0823160e01b815233600482015283906001600160a01b038716906370a0823190602401602060405180830381865afa1580156103df573d6000803e3d6000fd5b505050506040513d601f19601f820116820180604052508101906104039190611546565b101561045b5760405162461bcd60e51b815260206004820152602160248201527f496e73756666696369656e7420736f7572636520746f6b656e2062616c616e636044820152606560f81b606482015260840161022f565b604051636eb1769f60e11b815233600482015230602482015283906001600160a01b0387169063dd62ed3e90604401602060405180830381865afa1580156104a7573d6000803e3d6000fd5b505050506040513d601f19601f820116820180604052508101906104cb9190611546565b10156105255760405162461bcd60e51b815260206004820152602360248201527f496e73756666696369656e7420736f7572636520746f6b656e20616c6c6f77616044820152626e636560e81b606482015260840161022f565b7f00000000000000000000000000000000000000000000000000000000000000006001600160a01b0316856001600160a01b031614610573576105736001600160a01b038616333086610f37565b7f00000000000000000000000000000000000000000000000000000000000000006001600160a01b0316856001600160a01b0316146105e0576105e06001600160a01b0386167f000000000000000000000000000000000000000000000000000000000000000085610fa8565b60006338ed173960e01b84846105f689896110c2565b306106036104b04261155f565b604051602401610617959493929190611580565b604051602081830303815290604052906001600160e01b0319166020820180516001600160e01b03838183161783525050505090507f00000000000000000000000000000000000000000000000000000000000000006001600160a01b031663e5e8894b7f00000000000000000000000000000000000000000000000000000000000000006001600160a01b0316886001600160a01b0316146106bb5760006106bd565b855b7f0000000000000000000000000000000000000000000000000000000000000000896001600160a01b0316888a6001600160a01b031689886040518863ffffffff1660e01b815260040161071696959493929190611641565b6000604051808303818588803b15801561072f57600080fd5b505af1158015610743573d6000803e3d6000fd5b50506040516370a0823160e01b8152306004820152600093506001600160a01b03891692506370a082319150602401602060405180830381865afa15801561078f573d6000803e3d6000fd5b505050506040513d601f19601f820116820180604052508101906107b39190611546565b9050838110156108105760405162461bcd60e51b815260206004820152602260248201527f496e73756666696369656e742074617267657420746f6b656e20726563656976604482015261195960f21b606482015260840161022f565b6108446001600160a01b0387167f000000000000000000000000000000000000000000000000000000000000000083610fa8565b60006338ed173960e01b828561085a8a8c6110c2565b306108676104b04261155f565b60405160240161087b959493929190611580565b60408051601f198184030181529181526020820180516001600160e01b03166001600160e01b031990941693909317909252905163e5e8894b60e01b81529091506001600160a01b037f000000000000000000000000000000000000000000000000000000000000000081169163e5e8894b91610929917f0000000000000000000000000000000000000000000000000000000000000000918c81169188918f16908b908990600401611641565b600060405180830381600087803b15801561094357600080fd5b505af1158015610957573d6000803e3d6000fd5b50506040516370a0823160e01b8152306004820152600092506001600160a01b038b1691506370a0823190602401602060405180830381865afa1580156109a2573d6000803e3d6000fd5b505050506040513d601f19601f820116820180604052508101906109c69190611546565b905084811015610a295760405162461bcd60e51b815260206004820152602860248201527f496e73756666696369656e742066696e616c20736f7572636520746f6b656e206044820152671c9958d95a5d995960c21b606482015260840161022f565b7f00000000000000000000000000000000000000000000000000000000000000006001600160a01b0316896001600160a01b031603610b7057604051632e1a7d4d60e01b8152600481018290527f00000000000000000000000000000000000000000000000000000000000000006001600160a01b031690632e1a7d4d90602401600060405180830381600087803b158015610ac457600080fd5b505af1158015610ad8573d6000803e3d6000fd5b50506040516000925033915083908381818185875af1925050503d8060008114610b1e576040519150601f19603f3d011682016040523d82523d6000602084013e610b23565b606091505b5050905080610b6a5760405162461bcd60e51b8152602060048201526013602482015272109390881d1c985b9cd9995c8819985a5b1959606a1b604482015260640161022f565b50610b84565b610b846001600160a01b038a163383611150565b60408051888152602081018590529081018290526001600160a01b03808a1691908b16907f28c738dbec11a1bed94ba127a3712d54bcd39cf4ae95b6ebd671aaf10fd0287b9060600160405180910390a350505050610be36001600055565b5050505050565b610bf2611180565b610bfc60006111da565b565b610c06611180565b6001600160a01b038216610c545760405162461bcd60e51b8152602060048201526015602482015274496e76616c696420746f6b656e206164647265737360581b604482015260640161022f565b60008111610c955760405162461bcd60e51b815260206004820152600e60248201526d125b9d985b1a5908185b5bdd5b9d60921b604482015260640161022f565b7f00000000000000000000000000000000000000000000000000000000000000006001600160a01b0316826001600160a01b031603610df857604051632e1a7d4d60e01b8152600481018290527f00000000000000000000000000000000000000000000000000000000000000006001600160a01b031690632e1a7d4d90602401600060405180830381600087803b158015610d3057600080fd5b505af1158015610d44573d6000803e3d6000fd5b505050506000610d5c6001546001600160a01b031690565b6001600160a01b03168260405160006040518083038185875af1925050503d8060008114610da6576040519150601f19603f3d011682016040523d82523d6000602084013e610dab565b606091505b5050905080610df25760405162461bcd60e51b8152602060048201526013602482015272109390881d1c985b9cd9995c8819985a5b1959606a1b604482015260640161022f565b50610e1e565b610e1e610e0d6001546001600160a01b031690565b6001600160a01b0384169083611150565b816001600160a01b03167f5fafa99d0643513820be26656b45130b01e1c03062e1266bf36f88cbd3bd969582604051610e5991815260200190565b60405180910390a25050565b610e6d611180565b6001600160a01b038116610ed25760405162461bcd60e51b815260206004820152602660248201527f4f776e61626c653a206e6577206f776e657220697320746865207a65726f206160448201526564647265737360d01b606482015260840161022f565b610edb816111da565b50565b600260005403610f305760405162461bcd60e51b815260206004820152601f60248201527f5265656e7472616e637947756172643a207265656e7472616e742063616c6c00604482015260640161022f565b6002600055565b6040516001600160a01b0380851660248301528316604482015260648101829052610fa29085906323b872dd60e01b906084015b60408051601f198184030181529190526020810180516001600160e01b03166001600160e01b03199093169290921790915261122c565b50505050565b8015806110225750604051636eb1769f60e11b81523060048201526001600160a01b03838116602483015284169063dd62ed3e90604401602060405180830381865afa158015610ffc573d6000803e3d6000fd5b505050506040513d601f19601f820116820180604052508101906110209190611546565b155b61108d5760405162461bcd60e51b815260206004820152603660248201527f5361666545524332303a20617070726f76652066726f6d206e6f6e2d7a65726f60448201527520746f206e6f6e2d7a65726f20616c6c6f77616e636560501b606482015260840161022f565b6040516001600160a01b0383166024820152604481018290526110bd90849063095ea7b360e01b90606401610f6b565b505050565b6040805160028082526060808301845292600092919060208301908036833701905050905083816000815181106110fb576110fb611686565b60200260200101906001600160a01b031690816001600160a01b031681525050828160018151811061112f5761112f611686565b6001600160a01b039092166020928302919091019091015290505b92915050565b6040516001600160a01b0383166024820152604481018290526110bd90849063a9059cbb60e01b90606401610f6b565b6001546001600160a01b03163314610bfc5760405162461bcd60e51b815260206004820181905260248201527f4f776e61626c653a2063616c6c6572206973206e6f7420746865206f776e6572604482015260640161022f565b600180546001600160a01b038381166001600160a01b0319831681179093556040519116919082907f8be0079c531659141344cd1fd0a4f28419497f9722a3daafe3b4186f6b6457e090600090a35050565b6000611281826040518060400160405280602081526020017f5361666545524332303a206c6f772d6c6576656c2063616c6c206661696c6564815250856001600160a01b03166113019092919063ffffffff16565b90508051600014806112a25750808060200190518101906112a2919061169c565b6110bd5760405162461bcd60e51b815260206004820152602a60248201527f5361666545524332303a204552433230206f7065726174696f6e20646964206e6044820152691bdd081cdd58d8d9595960b21b606482015260840161022f565b60606113108484600085611318565b949350505050565b6060824710156113795760405162461bcd60e51b815260206004820152602660248201527f416464726573733a20696e73756666696369656e742062616c616e636520666f6044820152651c8818d85b1b60d21b606482015260840161022f565b600080866001600160a01b0316858760405161139591906116be565b60006040518083038185875af1925050503d80600081146113d2576040519150601f19603f3d011682016040523d82523d6000602084013e6113d7565b606091505b50915091506113e8878383876113f3565b979650505050505050565b6060831561146257825160000361145b576001600160a01b0385163b61145b5760405162461bcd60e51b815260206004820152601d60248201527f416464726573733a2063616c6c20746f206e6f6e2d636f6e7472616374000000604482015260640161022f565b5081611310565b61131083838151156114775781518083602001fd5b8060405162461bcd60e51b815260040161022f91906116da565b80356001600160a01b03811681146114a857600080fd5b919050565b600080600080600060a086880312156114c557600080fd5b6114ce86611491565b94506114dc60208701611491565b94979496505050506040830135926060810135926080909101359150565b6000806040838503121561150d57600080fd5b61151683611491565b946020939093013593505050565b60006020828403121561153657600080fd5b61153f82611491565b9392505050565b60006020828403121561155857600080fd5b5051919050565b8082018082111561114a57634e487b7160e01b600052601160045260246000fd5b600060a082018783526020878185015260a0604085015281875180845260c086019150828901935060005b818110156115d05784516001600160a01b0316835293830193918301916001016115ab565b50506001600160a01b03969096166060850152505050608001529392505050565b60005b8381101561160c5781810151838201526020016115f4565b50506000910152565b6000815180845261162d8160208601602086016115f1565b601f01601f19169290920160200192915050565b60018060a01b038716815285602082015284604082015283606082015282608082015260c060a0820152600061167a60c0830184611615565b98975050505050505050565b634e487b7160e01b600052603260045260246000fd5b6000602082840312156116ae57600080fd5b8151801515811461153f57600080fd5b600082516116d08184602087016115f1565b9190910192915050565b60208152600061153f602083018461161556fea26469706673582212205e2df43ec9360f0043186704ddc8249f83217c729621b1b2835f2be4c65f499964736f6c63430008140033",
  "linkReferences": {},
  "deployedLinkReferences": {}
}